:020000040800F2
:10000000080A002079020008CD210008111E00080E
:100010008D2000089F0300089522000800000000C2
:100020000000000000000000000000001522000891
:100030004307000800000000CF2100081722000835
:10004000930200089302000893020008930200083C
:10005000930200089302000893020008930200082C
:10006000930200089302000893020008930200081C
:10007000930200089302000893020008930200080C
:1000800093020008930200089302000893020008FC
:10009000930200084907000855070008930200086A
:1000A00093020008930200089302000893020008DC
:1000B00093020008930200089302000893020008CC
:1000C00093020008930200089302000893020008BC
:1000D00093020008930200089302000893020008AC
:1000E000930200089302000893020008930200089C
:1000F000930200089302000893020008930200088C
:10010000930200089302000893020008930200087B
:10011000930200089302000893020008930200086B
:10012000930200089302000893020008930200085B
:10013000930200089302000893020008930200084B
:1001400093020008930200089302000800000000D8
:10015000000000000000000000000000000000009F
:1001600000000000000000000000000093020008F2
:10017000930200089302000893020008930200080B
:1001800093020008930200089302000893020008FB
:100190009302000800000000610700086D070008D6
:1001A00093020008930200089302000893020008DB
:1001B00093020008930200089302000893020008CB
:1001C00093020008930200089302000893020008BB
:1001D000930200089302000800F002F800F03CF8D7
:1001E0000AA090E8000C82448344AAF10107DA4592
:1001F00001D100F031F8AFF2090EBAE80F0013F0A8
:10020000010F18BFFB1A43F001031847443A0000DE
:10021000643A0000103A24BF78C878C1FAD852076F
:1002200024BF30C830C144BF04680C607047000070
:100230000023002400250026103A28BF78C1FBD8EF
:10024000520728BF30C148BF0B6070471FB503F08D
:1002500052FC1FBD10B510BD00F06CF81146FFF741
:10026000F5FF02F017FF00F08AF803B4FFF7F2FF82
:1002700003BC00F08DF8000009488047094800479A
:10028000FEE7FEE7FEE7FEE7FEE7FEE7FEE7FEE746
:10029000FEE7FEE704480549054A064B70470000A3
:1002A00085220008D901000808040020080A00205F
:1002B00008060020080600204FF0000200B5134693
:1002C00094469646203922BFA0E80C50A0E80C5076
:1002D000B1F12001BFF4F7AF090728BFA0E80C5027
:1002E00048BF0CC05DF804EB890028BF40F8042B20
:1002F00008BF704748BF20F8022B11F0804F18BF8D
:1003000000F8012B704770477047704710B500F038
:1003100009F8006810BD10B5044600F003F8046049
:1003200010BD000000487047A80300200048704737
:10033000A80300207546FFF7F9FFAE4605006946A1
:10034000534620F00700854618B020B5FFF7A2FFFE
:10035000BDE820404FF000064FF000074FF00008C6
:100360004FF0000B21F00701AC46ACE8C009ACE847
:10037000C009ACE8C009ACE8C0098D46704710B5AB
:100380000446AFF300802046BDE81040FFF76DBF84
:1003900001491820ABBEFEE7260002007047FEE7C9
:1003A00000B5034601F014FF184600F005F81846A2
:1003B0005DF804EB00F060B8D0ED0C0AC0ED0D0A5A
:1003C00090ED080A90ED091A30EE410A80ED0C0A12
:1003D00090ED101AD0ED121A70EE600AB4EEE11A28
:1003E000F1EE10FA08DDB5EEC00AF1EE10FA03DD09
:1003F00031EE401A80ED101AD0ED131AB4EEE11A66
:10040000F1EE10FA08D2B5EEC00AF1EE10FA03D2FE
:1004100031EE401A80ED101A31EE001A124A80EDCA
:10042000101AD0ED031A21EE800AD0ED041A01EE65
:10043000810A90ED051A01EE200A10EE101A80EDE7
:10044000060A914203DD9FED090A80ED060A10EECF
:10045000101A074A914203D99FED060A80ED060A59
:1004600080ED0A0A7047000000007A4300007A43DA
:1004700000007AC300007AC3D0ED0E0AC0ED0F0A67
:1004800090ED0A0A90ED0B1A30EE410A80ED0E0A4B
:1004900030EE601AD0ED110AD0ED141AF4EEE10A34
:1004A000F1EE10FA08DDB5EEC00AF1EE10FA03DD48
:1004B00070EEC00AC0ED110AD0ED151AF4EEE10A93
:1004C000F1EE10FA08D2B5EEC00AF1EE10FA03D23E
:1004D00070EEC00AC0ED110A70EE800A114AC0ED3C
:1004E000110AD0ED001A21EE800AD0ED011A01EEBA
:1004F000A00AD0ED020A00EE810A10EE101A80ED7B
:10050000070A914203DD9FED080A80ED070A10EE0D
:10051000101A064A914203D99FED050A80ED070A99
:10052000704700000050C3460050C3460050C3C689
:100530000050C3C6D0ED0E0AC0ED0F0A90ED0A0AB6
:1005400090ED0B1A30EE410A80ED0E0A30EE601A83
:10055000D0ED110AD0ED141AF4EEE10AF1EE10FA22
:1005600008DDB5EEC00AF1EE10FA03DD70EEC00A48
:10057000C0ED110AD0ED151AF4EEE10AF1EE10FA11
:1005800008D2B5EEC00AF1EE10FA03D270EEC00A3E
:10059000C0ED110A70EE800A114AC0ED110AD0EDCB
:1005A000001A21EE800AD0ED011A01EEA00AD0ED6A
:1005B000020A00EE810A10EE101A80ED070A91423D
:1005C00003DD9FED080A80ED070A10EE101A064AB7
:1005D000914203D99FED050A80ED070A704700009C
:1005E0000050C3460050C3460050C3C60050C3C6A7
:1005F00000B5034601F0ECFDD3ED0E0AC3ED0F0A82
:1006000093ED080A93ED091A30EE410A83ED0E0AC4
:1006100093ED111AD3ED141A70EE600AB4EEE11ADC
:10062000F1EE10FA08DDB5EEC00AF1EE10FA03DDC6
:1006300031EE401A83ED111AD3ED151AB4EEE11A1A
:10064000F1EE10FA08D2B5EEC00AF1EE10FA03D2BC
:1006500031EE401A83ED111A31EE001A114983ED83
:10066000111AD3ED001A21EE800AD3ED011A01EE22
:10067000810A93ED021A01EE200A10EE100A83EDB2
:10068000070A884203DD9FED080A83ED070A10EE92
:10069000100A0649884203D99FED050A83ED070A2F
:1006A00000BD00000050C3460050C3460050C3C602
:1006B0000050C3C69FED0E0ADFED0E0A80ED090A59
:1006C00080ED0B0A80ED0C0A80ED0D0A80ED0E0A1C
:1006D00080ED0F0AC0ED080A80ED0A0A80ED100ACD
:1006E00080ED110A80ED060A80ED070A70470000D0
:1006F000000000000000B44210B5002920D00A8894
:1007000052BA13B203804A885B1D52BA14B2848075
:100710008A8852BA12B2C2808979017200210A2BEA
:1007200000D80180B0F902305B1D0A2B00D841804F
:10073000641D0A2C00D88180521D0A2A00D8C1806D
:1007400010BD704772B6FEE7014800F098B900008E
:10075000E0020020014800F092B90000E002002011
:10076000014800F08CB9000044030020014800F06B
:1007700086B9000044030020F0B5D1E901650C6999
:100780002C430D68C6B145F080452C43D1E9066580
:10079000354391F820704E69406D46EA076635434F
:1007A0008E8903EBC30300EBC30045EA0645E0E88E
:1007B00002450023084C0AE044EA8544E6E7D618DF
:1007C000D55CD6F801601B1D45EA062520C0CD6822
:1007D000655D9D42F3D8F0BD0A3B000830B590F846
:1007E0005C30012B07D0022B05D0016E41F00201D5
:1007F0000166012030BD0468A36D4D0701D0DD07FF
:100800001DD011F0380F01D09D0718D511F4E07FED
:1008100001D05D0713D511F4F05F01D01D070ED58F
:1008200011F4604F01D0DD0609D511F4403F01D02D
:100830009D0604D511F47C0F05D05D0603D4E56D4B
:1008400045F00105E5654C0701D0DC071DD111F02D
:10085000380F01D09C0718D411F4E07F01D05C0759
:1008600013D411F4F05F01D01C070ED411F4604FC3
:1008700001D0DC0609D411F4403F01D09C0604D419
:1008800011F47C0F06D05B0604D50368DC6D44F0E0
:100890000204DC650B0604D5036853F8DC4F1443EF
:1008A0001C60CB0504D5036853F8E04F14431C606B
:1008B0000068426D0A434265002030BD70B50446B1
:1008C00090F85C00022803D0206E40F0080007E09A
:1008D0002068D0F8C4309B0205D5206E40F400702B
:1008E0002066012070BDD0F8C400C0F301452B463E
:1008F0002046FFF741FF21680120A840C1F8CC0045
:10090000A065002070BD10B590F85C20012A07D0CA
:10091000022A05D0016E41F002010166012010BDDE
:100920000A687AB10B7B0A690C7A42EA43734A6916
:10093000406C496842EA847200EBC100C0E90032B1
:10094000002010BD0B7A4A690C8A42EA83720B7B45
:10095000006CDB06496843EA04431A4340F821204F
:10096000EEE7704770470000F0B590F85C40002556
:10097000022C03D0016E41F0080160E004684029B8
:1009800046D0D4F89860360756D0D4F89860F6016F
:1009900004D5D4F88060F60500D50125D4F8984038
:1009A000C4F301246619C46C06EBC60504EBC50448
:1009B000256815F080455560256843D025F06045D1
:1009C000156025682C4F05F00055956020CC05F08A
:1009D0000045156134F8045BADB2D56154F8045C90
:1009E000C5F30345D56054F8045C05F480155561E2
:1009F00054F8045C05F40015956154F8045CC5F3E3
:100A00000665156254F8045CED0F5562002522E07E
:100A1000D4F8906036070FD0D4F89060F60104D572
:100A2000D4F88060B60500D50125D4F89040C4F311
:100A300001246619846CB7E7016E41F48071016688
:100A40000120F0BDC5F38A45BAE700BF14F805C020
:100A500003F805C06D1CD2F80CC017F80CC0AC45EB
:100A6000F4D80068402903D0C0F89C600020F0BD95
:100A7000C0F89460FAE700000A3B000870472DE9CF
:100A8000F05F04460068016D426D01F4E05102EA36
:100A90000108016D426D01F0070102EA0109016DD3
:100AA000426D01F0380102EA010A016D476D01F45F
:100AB00071010F40016D426D01F46021456D02EA44
:100AC000010B016DCE43710607D4E943490604D4F6
:100AD000402101652046FFF7D1FFF0050ED4E84321
:100AE000C0050BD42068D0F8D820D0F8E010114011
:100AF0004FF480720265204600F0A9FAB8F10000B8
:100B000005D0216808654146204600F0A2FAB9F1F7
:100B1000000005D0216808654946204600F008FA23
:100B2000BAF1000005D0216808655146204600F062
:100B300075FAB00509D4E843800506D421684FF45E
:100B400000700865204600F085FA30060DD4E843B1
:100B500000060AD42068D0F8D420D0F8DC10114068
:100B600080220265204600F073FAB00409D4E843FD
:100B7000800406D421684FF400500865204600F038
:100B800065FA300409D4E843000406D421684FF420
:100B900000400865204600F058FA70040AD4E84383
:100BA000400407D421684FF480400865206E40F06F
:100BB00080002066BBF1000005D021680865594619
:100BC0002046FFF7CFFE27B120680765206E384327
:100BD0002066206E002802D02046FFF7C2FEBDE846
:100BE000F09F00002DE9F041040006D0DFF8F48109
:100BF00094F85C00002518B107E00120BDE8F08101
:100C000084F85D50204600F0F9F82068816921F0F1
:100C10001001816100F044FB0646032705E000BF98
:100C200000F03EFB801B0A2811D82068806900076D
:100C3000F6D42068816941F00101816100F030FB48
:100C400006460BE000F02CFB801B0A2806D9206E1C
:100C500040F00100206684F85C70CEE7206880696F
:100C6000C007EFD02068816941F0020181612168ED
:100C7000414502D15C4960680860207C01282068F9
:100C8000816937D041F040018161607C0128206892
:100C9000816932D021F480418161A07C01282068E3
:100CA00081692DD041F48051816120688169A268F9
:100CB00021F44071114381612068816921F0A40110
:100CC00081612068016921F010010161E06801285B
:100CD00019D010B302281BD02068816941F080012F
:100CE00081612068016941F010010161E068032819
:100CF0000ED012E021F04001C6E741F48041CBE77D
:100D000021F48051D0E72068816941F0040103E0BB
:100D10002068816941F020018161207EE2694006FE
:100D20006FF0FF0101EB0222A0F100701043226A74
:100D3000A38A521E10430A0202EB0343184323689E
:100D4000D861A068B0F5407F10D1D4E90A0301EB67
:100D50000321401E0843216B131303EB01110843C9
:100D6000A18C02EB014108432168C860206850F85B
:100D7000C01FE26B114301601D4A21681B4891426C
:100D800000D11C481C4A914201D100F5D460206476
:100D900051F8802FA38E22F4F81242EA03420A602F
:100DA00000F170016164216851F8802F94F83830A7
:100DB00022F0706242EA03620A6000F1B001A164AD
:100DC000D831E164D831216518316165D83100E04E
:100DD00020C08842FCD3A5652566012084F85C000C
:100DE00000200BE7006400400065004000A40040C4
:100DF0000068004050A70040006C00402DE9F0431F
:100E00009BB00446142115A8FFF756FA54216846F2
:100E1000FFF752FA414B2168981400254203404ED7
:100E20000227DFF80091404C4FF00908994236D173
:100E300000900E92684600F031FB08B1FFF782FC8B
:100E40003068401C3060012807D1A06D40F0007070
:100E5000A065A06D00F000701A90E06C40F00200F8
:100E6000E064E06CCDE9167500F002001A904FF4D2
:100E70004070CDE91858159015A9484600F0ECF8D7
:100E800000221146152000F071FA152000F060FADA
:100E900000221146162000F069FA162038E0234B94
:100EA000994237D100900E92684600F0F7FA08B1E7
:100EB000FFF748FC3068401C3060012807D1A06D66
:100EC00040F00070A065A06D00F000701A90E06C1A
:100ED00040F00200E064E06CCDE9167500F002001D
:100EE0001A904FF44050CDE91858159015A948466E
:100EF00000F0B2F800221146562000F037FA5620D2
:100F000000F026FA00221146572000F02FFA572051
:100F100000F01EFA1BB0BDE8F08300000064004042
:100F20000400002000040048001002400068004057
:100F300010B5044633488CB0844235D10AAB6A46BA
:100F400040212046FFF710FD70BB0098A0F2012061
:100F5000052829D2DFE800F003060C1013000AA9C7
:100F6000294802E028480AA9743001F0CDFF1BE0AF
:100F700025480AA9E830F8E70AA92448F5E72248F5
:100F80000AA9743801F0C0FF1F480AA9843801F08B
:100F9000F1FF1F48016839B91B499FED1E0A8439CA
:100FA00081ED000A012101601B48844222D100200A
:100FB0000A900B900AAB6A4640212046FFF7D4FC0A
:100FC000002817D10098012814D19DF928000AA9FA
:100FD000401C11D00C48A038FFF78EFB0A49843919
:100FE000A1F11C0001F0FCFF0749A03901F11C0030
:100FF00001F090FE0CB010BD0348843801F0A6FF4C
:10100000F8E70000E0020020B800002014020020F1
:10101000000000200000000044030020704790F80A
:101020005C10012905D0016E41F004010166012028
:101030007047022180F85C1001688A6922F0010281
:101040008A61002101660846704770477047704703
:1010500070477047704700002DE9F04FDFF820928D
:10106000002301260324A9F1040B85B00F2709F101
:10107000040AABF1040EFAE006FA03F52A407CD02C
:1010800091F804C00CF0030CBCF1010F02D0BCF1CC
:10109000020F26D1D0F808C0CDF800C04FEA430CAB
:1010A00004FA0CF8CDF810C0DDF800C02CEA080CEA
:1010B000CDF800C0D1F80C80DDF810C008FA0CF8AB
:1010C000DDF800C048EA0C08C0F80880D0F804C079
:1010D0002CEA050C0D79C5F300159D4045EA0C0579
:1010E00045600D79ED43AD070ED0C5684FEA430862
:1010F00004FA08FC25EA0C05D1F808C00CFA08FC33
:101100004CEA050CC0F80CC00D7905F00305022D62
:1011100016D1DD0800EB850CCDF808C0DCF8208086
:101120005D074FEAD56C07FA0CF528EA05080D694A
:1011300005FA0CF5DDF808C045EA0805CCF82050A2
:1011400005684FEA430CCDF808C004FA0CFC25EA08
:101150000C0591F804C00CF00308DDF808C008FA8B
:101160000CF848EA0508C0F800804D6815F4403FC7
:101170007CD0444DD5F860C000E077E04CF0010C25
:10118000C5F860C02D6E23F0030C05F00105009535
:101190003D4D65440295AD684FEA837C4FEA1C786B
:1011A00007FA08FC25EA0C05B0F1904F06D0DFF8ED
:1011B000DCC0604505D14FF0010C20E04FF0000C81
:1011C0001DE0DFF8CCC0604502D14FF0020C16E004
:1011D000DFF8C0C0604502D14FF0030C0FE0DFF82C
:1011E000B8C0604502D14FF0040C08E0DFF8ACC095
:1011F000604502D14FF0050C01E04FF0060C0CFAEF
:1012000008FC4CEA050C029DC5F808C0D9F800504E
:10121000CC46D1F8048095435FEAC82800D5154331
:10122000CCF80050DAF80050D446D1F80480954349
:101230005FEA882800D51543CCF80050DBF8005051
:10124000DC46D1F8048095435FEA883800D5154321
:10125000CCF80050DEF80050F446D1F804809543F5
:101260005FEAC83800D51543CCF800505B1C0A680B
:1012700032FA03F57FF400AF05B0BDE8F08F00004F
:101280000804014000100240000001400004004832
:1012900000080048000C00480010004800140048F6
:1012A00001488068704700000800002002488168FB
:1012B00042681144816070470800002010B5002486
:1012C000032000F073F80F2000F008F808B10124A3
:1012D00001E000F025F8204610BD000070B50E4E6C
:1012E00005460024706898B14FF47A71B1FBF0F0B4
:1012F0000A490968B1FBF0F000F076FD40B9102D05
:1013000006D200222946501E00F030F8356000E079
:101310000124204670BD00000800002014000020B9
:101320000A4882B0016E41F001010166016E01F0D0
:1013300001010091816D41F080518165806D00F067
:101340008050009002B000F0A1B8000000100240F0
:10135000002809DB00F01F020121914040098000B4
:1013600000F1E020C0F8001170470000F0B40E4B0F
:101370001B680C46C3F30223C3F10705042D00D9F3
:101380000425191D072901D2002300E0DB1E0126D8
:1013900006FA05F1491E214099409E40761E1640EE
:1013A0003143F0BC00F08FBF0CED00E0064900F0C7
:1013B000070208684FF6FF03184040EA0220034A7C
:1013C00010430860704700000CED00E00000FA05D3
:1013D0002B492C4B0A6832214A432B4940B1B0F5C6
:1013E000007F086829D020F4C06040F480602CE0C1
:1013F0000868C0F34120022804D051F8800F20F47F
:10140000807022E0D1F8800020F48070C1F8800064
:10141000086820F4C06040F400700860B2FBF3F08C
:10142000401C00E0401E4A69520501D50028F9D150
:10143000486940050AD503207047C0F341200228BF
:1014400006D051F8800F40F480700860002070478B
:10145000D1F8800040F48070C1F88000086820F462
:10146000C06040F400700860B2FBF3F0401C00E084
:10147000401E4A695205DBD50028F9D1D8E70000A3
:101480001400002040420F000070004002488168B4
:1014900041F4804181607047007000402DE9F843BD
:1014A000044600680026BB4D00035ED5A86D0027EA
:1014B000C00008D4A86D40F08050A865A86D012731
:1014C00000F080500090DFF8D092D9F8001041F47D
:1014D0008071C9F80010FFF7E3FE804606E000BF08
:1014E000FFF7DEFEA0EB080002282BD8D9F8000099
:1014F000C005F5D5D5F8900010F4407014D0216DDA
:10150000814211D0D5F89000D5F8901020F44070A9
:1015100041F48031C5F89010D5F8901021F4803155
:10152000C5F89010C5F89000C00711D0FFF7B8FEBD
:10153000804641F2883907E0FFF7B2FEA0EB0801D0
:10154000494501D903260BE0D5F890008007F3D573
:10155000D5F89000216D20F440700843C5F8900044
:101560001FB1A86D20F08050A8652078C00707D073
:10157000D5F88800616820F003000843C5F88800AA
:101580002078800707D5D5F88800A16820F00C00E6
:101590000843C5F888002078400707D5D5F88800AB
:1015A000E16820F030000843C5F888002078000783
:1015B00007D5D5F88800216920F0C0000843C5F898
:1015C00088002078C00607D5D5F88800616920F426
:1015D00040700843C5F888002078800607D5D5F804
:1015E0008800A16920F440600843C5F8880020788D
:1015F000400607D5D5F88800E16920F4405008433B
:10160000C5F888002078000607D5D5F88800216A3B
:1016100020F440400843C5F888002088C00507D55D
:10162000D5F88800616A20F440300843C5F8880086
:101630002068800307D5D5F89C00A16A20F003003C
:101640000843C5F89C002088800507D5D5F8880098
:10165000E16A20F440200843C5F88800208840054E
:101660000FD5D5F88800216B20F440100843C5F849
:101670008800206BB0F5801F03D1E86840F480102B
:10168000E860208800050FD5D5F88800616B20F44C
:1016900040000843C5F88800606BB0F5800F03D1A7
:1016A000E86840F48010E8602088C0040FD5D5F8C1
:1016B0008800A16B20F040700843C5F88800A06B3B
:1016C000B0F1807F03D1E86840F48010E8602088A2
:1016D0004FF0006180040ED5D5F88800E26B20F051
:1016E00040601043C5F88800E06B884203D1E86889
:1016F00040F48010E860208840040ED5D5F88800BA
:10170000226C20F040601043C5F88800206C8842AD
:1017100003D1E86840F48010E860208800040FD509
:10172000D5F88800616C20F040500843C5F8880067
:10173000606CB0F1805F03D1E86840F48030E8600D
:101740002068C0030FD5D5F88800A16C20F0404078
:101750000843C5F88800A06CB0F1804F03D1E86859
:1017600040F48030E860206840030FD5D5F89C0035
:10177000E16C20F440100843C5F89C00E06CB0F523
:10178000001F03D1E86840F48010E8603046BDE8EF
:10179000F883000000100240007000402DE9F0477F
:1017A0000E4605004FF0000725D0DFF8AC81D8F8D1
:1017B000000000F00F00B0420CD2D8F8001021F069
:1017C0000F013143C8F80010D8F8000000F00F00F6
:1017D000B04210D12968614CC80741F2883A5AD00A
:1017E0006868DFF87C91032808D0022820682DD093
:1017F000400500282CDB0120BDE8F087206880012F
:10180000F9D5E06800F00302E068C0F30310401C63
:10181000032A19D0534A00BFB2FBF0F0E268C2F3CA
:1018200006225043E268C2F34162521C5200B0FBF0
:10183000F2F0484517D9A06810F0F00F0CD08807D7
:1018400011D5A86840B10EE0474AE5E78003D0E72C
:1018500000F092F8484506D9A06820F0F00040F06A
:101860008000A0608027A068696820F0030008431A
:10187000A060FFF715FD814606E000BFFFF710FDF1
:10188000A0EB090151453AD8A068696800F00C0046
:10189000B0EB810FF2D12868810714D5400703D53A
:1018A000A06840F4E060A0602878000705D5A06833
:1018B00020F4605040F4E060A060A068A96820F0C7
:1018C000F000084304E0802F03D1A06820F0F0006E
:1018D000A060D8F80010404601F00F01B14216D9BF
:1018E000016821F00F0131430160FFF7D9FC074681
:1018F00007E000BFFFF7D4FCC11B514501D903200D
:101900007AE7D8F8000000F00F00B042F2D1287852
:10191000400705D5A068E96820F4E0600843A060AE
:101920002878000706D5A068296920F4605040EAAD
:10193000C100A06000F020F8A1680C4AC1F30311B7
:10194000515C01F01F01C84009490860094800685E
:10195000BDE8F047FFF7C2BC002002400010024083
:1019600000B4C4040024F40000127A001A3B0008FA
:101970001400002008000020184910B58868C0F342
:1019800081021748012A0BD08A684310C2F38102F2
:10199000022A06D08A68C2F38102032A03D00020FB
:1019A00010BD184610BDCA6802F00304CA68C2F32D
:1019B0000312521C032C02D0B0FBF2F001E0B3FB87
:1019C000F2F0CA68C968C2F306225043C1F341610C
:1019D000491C4900B0FBF1F010BD000000100240AE
:1019E0000024F4002DE9F84304007AD02078F84D63
:1019F000C00747D0A868E96800F00C0001F00301B7
:101A00000C2802D0082817D001E0032914D0606800
:101A1000B0F5803F17D0B0F5A02F286817D020F47C
:101A200080302860286820F4802028606068E0B159
:101A3000FFF736FC064614E02868800322D560686C
:101A40000028D2D01EE0286840F48030EDE740F452
:101A500080202860F7E700BFFFF722FC801B642886
:101A600070D828688003F7D50CE0FFF719FC06460C
:101A700005E000BFFFF714FC801B6428F0D828683D
:101A80008003F7D4207880074CD5A868E96800F077
:101A90000C0001F003010C2802D004280DD001E055
:101AA00002290AD0E068002828682BD040F4807012
:101AB0002860FFF7F5FB064619E02868400502D5C7
:101AC000E068002891D06868217C20F0FE4040EA60
:101AD00001606860BF480068FFF700FC002800D183
:101AE00020E072E1FFF7DCFB801B0228B8D82868F1
:101AF0004005F7D56868217C20F0FE4040EA01608F
:101B000068600FE020F480702860FFF7C9FB06468C
:101B100005E000BFFFF7C4FB801B0228A0D828689F
:101B20004005F7D42078000729D560690028D5F84A
:101B3000940013D040F00100C5F89400FFF7B0FB0B
:101B4000064606E090E000BFFFF7AAFB801B0228D4
:101B500086D8D5F894008007F6D510E020F0010073
:101B6000C5F89400FFF79CFB064604E0FFF798FBDE
:101B7000801B022878D8D5F894008007F6D4207806
:101B8000400761D5A86D0026C00008D4A86D40F0BC
:101B90008050A865A86D012600F0805000908E4806
:101BA0000168C90511D40168804641F48071016063
:101BB000FFF776FB074604E0FFF772FBC01B022825
:101BC00052D8D8F80000C005F6D5A068012815D075
:101BD0000528D5F8900016D020F00100C5F8900037
:101BE000D5F8900020F00400C5F89000A06841F2FC
:101BF0008838B8B1FFF754FB07460EE0D5F89000DF
:101C000040F00100F0E740F00400C5F89000F5E76F
:101C1000FFF746FBC11B414526D8D5F89000800749
:101C2000F6D50CE0FFF73CFB074604E0FFF738FB76
:101C3000C11B414518D8D5F890008007F6D41EB1D5
:101C4000A86D20F08050A8652078800629D5A0696D
:101C50000028D5F8980013D040F00100C5F898008E
:101C6000FFF71EFB064606E075E000BFFFF718FB16
:101C7000801B02286FD8D5F898008007F6D510E0B1
:101C800020F00100C5F89800FFF70AFB064604E0C3
:101C9000FFF706FB801B02285DD8D5F89800800767
:101CA000F6D4E069F0B3A968C1F3810103295DD0DE
:101CB0000228286820F08070286003D0FFF7F0FA2F
:101CC00004464BE0FFF7ECFA064604E0FFF7E8FABB
:101CD000801B02283FD828688001F7D4F4E9080166
:101CE0006FF00F0202EB01110843218A52044908E8
:101CF00002EB4151A26841EA02210843217D4FF0E5
:101D00007E42490802EB41610843217B40EAC16001
:101D1000E968324A11400843E860286840F0807062
:101D2000286000E05EE0E86840F08070E860FFF75F
:101D3000B7FA044605E000BFFFF7B2FA001B02281D
:101D400009D828688001F7D54CE000BFFFF7A8FA52
:101D5000001B022802D90320BDE8F883286880010F
:101D6000F4D4E8681E490840E8603BE00128F3D05D
:101D7000E868226A00F00301914226D1616A00F00E
:101D8000F0020901103991421FD1A26A00F4FE410C
:101D9000B1EB022F19D194F82C2000F07841B1EB6F
:101DA000C26F12D1218E00F4C00249084905A1F585
:101DB0000011914209D194F8341000F0C060490834
:101DC0004906A1F1007181420CD00120C4E7000056
:101DD0000010024008000020007000400C809F01AD
:101DE000FCFFEEFE0020B7E710B5401EB0F1807F8B
:101DF00001D3012010BD4FF0E02460610F21601776
:101E000000F061FA0020A06107202061002010BDD1
:101E1000FEE700009FED120ADFED140A80ED030AD1
:101E20009FED100A9FED121A80ED040AB7EE080A22
:101E300080ED050A9FED0C0A80ED120AC0ED130A31
:101E400080ED001A9FED0B1A80ED011AB2EE0E1A0A
:101E500080ED021A80ED140AC0ED150A70470000EB
:101E60000000204295BF563300401C4600401CC66F
:101E700000005C42BD37063510B511480446FEF738
:101E800019FC2046FFF7C6FF0D489FED0E0A2C38BF
:101E900080ED090A80ED080AA03000F047F80848F4
:101EA000E83000F043F8084800F040F80648743085
:101EB00000F03CF80448BDE81040CC3000F054B8C5
:101EC0006000002000000000BC01002070B58CB054
:101ED000002401A802250126009480E870000494E3
:101EE000694610480594FEF70EFD0E48FFF797F877
:101EF000002201210B48FEF771FC07A9069481E836
:101F000070000A9406A908480B94FEF7FCFC0648EA
:101F1000FFF785F8002201210348FEF75FFC0CB0B3
:101F200070BD0000E002002044030020B2EE040A6D
:101F300080ED000A9FED080A80ED010A9FED070A77
:101F400080ED020A9FED060A80ED140A9FED050A56
:101F500080ED150A7047000077CC2B32000000009E
:101F600000401C4600401CC69FED0C0A80ED000A94
:101F70009FED0B0A80ED010AB7EE000A80ED020A20
:101F80009FED080A80ED140A9FED070A80ED150AFF
:101F90009FED060A80ED080A7047000000008C42A1
:101FA00077CC2B3200401C4600401CC600000000CD
:101FB000124810B510490160002141608160C16084
:101FC0000174417481741122426101220323C0E92A
:101FD00006230623C0E908328262C262C0E90C21EE
:101FE0008163C163FEF7FEFD002803D0BDE8104009
:101FF000FEF7A8BB10BD000000640040E002002016
:10200000124810B510490160002141608160C16033
:102010000174417481741122426101220323C0E9D9
:1020200006230623C0E908328262C262C0E90C219D
:102030008163C163FEF7D6FD002803D0BDE81040E0
:10204000FEF780BB10BD0000006800404403002084
:102050000D4808B5C16C41F02001C164C16C01F0AC
:1020600020010091C16C41F00201C164C16C01F01A
:1020700002010091C16C41F00101C164C06C00F02B
:102080000100009008BD000000100240FEE70000C3
:1020900010B504462DED028B90ED230A464980EDE4
:1020A000310A90ED210A80ED330A90ED260A80ED89
:1020B000300A90ED250A80ED320A90ED400A80ED5D
:1020C0004E0A90ED3E0A80ED500A90ED430A80EDF5
:1020D0004D0A90ED420A80ED4F0A94ED5D0A84EDC1
:1020E0006B0A94ED5B0A84ED6D0A94ED600A84ED51
:1020F0006A0A94ED5F0A84ED6C0A94ED7A0A84ED25
:10210000880A94ED780A84ED8A0A94ED7D0A84EDBC
:10211000870A94ED7C0A84ED890A94EC020A30EE79
:10212000200A10EE100A84ED060A9FED248B8842E7
:102130000ADB10EE100A01F06DFC53EC182B01F0D5
:102140007FFB00F0E7FFA06194ED060AB5EEC00A40
:10215000F1EE10FA0AD210EE100A01F05BFC53EC1B
:10216000182B01F009F800F0D5FFA06194ED060AE4
:10217000DFED140A9FED141A60EE201A81EE810A39
:1021800084ED060A84ED140A94ED040A84ED160A1F
:1021900094ED090A84ED130A94ED080A84ED150AFA
:1021A00094ED030A20EE200AC0EE010AC4ED9E0A57
:1021B000BDEC028B10BD0000DB0FC940182D44544C
:1021C000FB2119400000B443DB0FC940FEE7704714
:1021D00090ED080AD0ED090A0B4A9FED0C1A30EE7B
:1021E000600A10EE101A914203DB70EE810AC0ED16
:1021F000090A10EE101A064A914203D330EEC10AC2
:1022000080ED090A70470000000034430000B44329
:10221000000034C37047FFF749B800B593B03821C8
:102220006846FEF749F814210EA8FEF745F800208D
:10223000FFF7CEF80220C10103914021049104214F
:10224000CDE9080100905521CDE90A1007900C90C6
:102250000D906846FFF7C6FB08B172B6FEE70F2087
:102260000E9003200F9000201090119012900421E6
:102270000EA8FFF793FA002801D072B6FEE713B05C
:1022800000BD00000248016841F470010160704720
:1022900088ED00E0FEE703B401984100009850EAA1
:1022A000C12018BF04204A0D18BF40F0010040F2C1
:1022B000FF72B2EB515F08BF40F00200012808BF77
:1022C000052002B070470907090E002804DB00F161
:1022D000E02080F80014704700F00F0000F1E020CB
:1022E00080F8141D7047000010B52F499FED2C1B7E
:1022F0002DED020B84B0059820F000408842D8BF35
:102300009DED040B2DDD2949884209D1049840B97F
:102310004FF00100FDF7FFFF00F0A2FC06B010BD7A
:1023200005DB9DED040B00F08FFC06B010BD684688
:102330009DED040B00F0A0F810F0030004BF9DED2C
:10234000021B9DED000B0CD001280ED09DED021B51
:102350009DED000B022817D0012000F0DDFB06B038
:1023600010BD00F0A5FA06B010BD9DED021B9DED5D
:10237000000B012000F0D0FB51EC100B00F0BEFE72
:1023800006B041EC100B10BD00F092FA51EC100BAE
:1023900000F0B4FE06B041EC100B10BD00000000D0
:1023A0000000000000000000FB21E93F0000F07F7A
:1023B00010B52F499FED2C1B2DED020B84B0059815
:1023C00020F000408842DCBF00209DED040B32DD90
:1023D0002849884209D1049840B94FF00100FDF71F
:1023E0009AFF00F03DFC06B010BD05DB9DED040B2F
:1023F00000F02AFC06B010BD68469DED040B00F00D
:102400003BF810F0030011D0012818D09DED021BFD
:102410009DED000B02281AD000F04AFA51EC100B87
:1024200000F06CFE06B041EC100B10BD9DED021BE0
:102430009DED000B012000F06FFB06B010BD9DED7F
:10244000021B9DED000B00F033FA06B010BD012019
:1024500000F062FB51EC100B00F050FE06B041ECB6
:10246000100B10BD00000000000000000000000084
:10247000FB21E93F0000F07F2DE9F14F04462DEDEF
:10248000020B2DED088B8AB09FEDE70B80ED020B60
:10249000139EE74826F0004585420ADC9DED120BAD
:1024A000002084ED000B0AB0BDEC088B03B0BDE842
:1024B000F08FE0489FEDE0AB9FEDE1BBA84247DD28
:1024C000E14F9FEDE39B9FEDE48B9DED120B53ECF1
:1024D0001A2B51EC100B002E1CDD01F0B1F941EC70
:1024E000100BBD4208D053EC1B2B51EC100B01F02C
:1024F000A7F9C4E900010BE053EC192B51EC100BC8
:1025000001F09EF953EC182B01F09AF9C4E900018F
:102510000120C8E700F030FE41EC100BBD4208D0AE
:1025200053EC1B2B51EC100B00F026FEC4E900010C
:102530000BE053EC192B51EC100B00F01DFE53EC8B
:10254000182B00F019FEC4E900014FF0FF30AAE794
:10255000C348A84279DB9DED120B51EC100B00F043
:10256000C7FC41EC180B9FEDC00B53EC102B01F096
:102570005DF89FEDBF1B53EC112B00F0FDFD00F04B
:10258000FBFF074601F027F841EC190B53EC1A2B1F
:1025900001F04CF853EC182B01F046F941EC180B04
:1025A00053EC1B2B51EC190B01F040F8DFF8C8A2DB
:1025B00041EC100B4FEA15580125FA4453EC102B4F
:1025C00051EC180B01F03CF9032DC4E900013DD09A
:1025D000C1F30A5005EB4511A8EB00001139814207
:1025E00034DA0AEB051BB0EE48AA9BED000BF0EEC7
:1025F00068AA53EC102B51EC190B01F017F841ECC1
:102600001B0B51EC1A0B53EC1B2B01F019F941EC8D
:10261000180B51EC1A0B53EC182B01F011F953EC79
:102620001B2B01F00DF99BED020B41EC1A0B53EC47
:10263000102B51EC190B00F0F9FF53EC1A2B01F0A1
:10264000FFF841EC100B6D1CB8E70EE0002EA8BFA0
:102650003846BFF628AF94ED000B51EC100B00F09C
:102660004DFDC4E9000178421DE7C6F3130040F4B4
:10267000801EC6F30A50A0F2F530471100F01F0586
:10268000C5F12000DDF848B00890002006900790C2
:102690000520EC467949002D07EB0002794408BF7C
:1026A00051F8221009D051F8223001EB8201AB40E1
:1026B0004A68089922FA01F11943A1FB0E26A1FBF1
:1026C0000B131A449A4234BF0123002303EB06087C
:1026D0000CEB8003D3E901A60E448E4234BF0121E6
:1026E000002192448A4411B1924502D903E09245F7
:1026F00001D2012100E00021C3E901A641444CF8C8
:102700002010011EA0F10100C4DC029800F100506D
:10271000850F0298DDE903678000DDF8148000F082
:102720005AFF41EC1A0B304600F06CFF9FED541B32
:1027300053EC112B00F07AFF41EC1B0B384600F0F4
:1027400061FF9FED511B53EC112B00F06FFF41EC2B
:10275000180B404600F056FF9FED4D1B53EC112B1C
:1027600000F064FF41EC190B51EC180B53EC192BE2
:1027700000F002FD53EC1B2B00F0FEFC53EC1A2B77
:1027800000F0FAFCCDE90801002008909DED080B4F
:1027900053EC1A2B51EC100B01F052F853EC1B2B9D
:1027A00001F04EF853EC182B01F04AF853EC192BBA
:1027B00001F03AF89FED381B53EC112B00F036FF77
:1027C0009FED370B41EC180B53EC102B9DED080BD4
:1027D00051EC100B00F02AFF53EC182B00F0CCFC4E
:1027E0009FED310B41EC180B53EC102B9DED080BBA
:1027F00051EC100B00F01AFF53EC182B00F0BCFC4E
:1028000041EC100B139810F0004F06D06D4251ECC4
:10281000100B00F073FC41EC100B284684ED000B0C
:1028200041E6000000000000000000000000000081
:10283000FB21E93F7CD9024000004054FB21F93FD5
:102840003163621A61B4D03DFB21F93F0000000002
:102850000000601A61B4D03D7370032E8A19A33B47
:10286000FB2139410000000083C8C96D305FE43F9F
:10287000000000000000E03FA2150000F01400007E
:10288000000000000000103E000000000000103CAE
:10289000000000000000103A182D4454FB21F93DBF
:1028A0003326A611460B113C00000054FB21F93DD4
:1028B00010B52DED040B2DED088B82B0B0EE419AD2
:1028C000F0EE619A0B9820F000449FED4BABB4F111
:1028D000795F11DA9DED0A0B51EC100B00F04CFE04
:1028E000002801BFB0EE4A0AF0EE6A0A02B0BDEC61
:1028F000088B04BF04B010BD9DED0A0B53EC102BE8
:1029000051EC100B00F092FE41EC180B3C480621F4
:10291000B0EE480AF0EE680A784400F081F853EC13
:10292000182B51EC100B00F081FE9DED0A0B41ECD1
:102930001B0B53EC192B51EC100B00F077FE41EC04
:10294000190B53EC1B2B51EC180B00F06FFE53ECE2
:10295000192B00F075FF9FED2C0B41EC190B53EC7C
:10296000102B51EC180B00F061FE41EC100B2848C5
:10297000844210DA53EC192B51EC100B00F060FF7D
:1029800053EC1A2B00F050FF41EC100B02B0BDECE1
:10299000088B04B010BD1F48A042BCBF9FED1E1B9A
:1029A0008DED001B06DBA4F50010019000200090C7
:1029B0009DED001B51EC100B53EC112B00F040FF70
:1029C0009DED000B41EC180B53EC102B51EC1A0B46
:1029D00000F036FF41EC1A0B53EC192B51EC180B9D
:1029E00000F02EFF53EC1A2B00F01EFF41EC100BF1
:1029F000CCE7000000000000000000000000F03FF5
:102A00001412000000000000000000000000E03F81
:102A10003333D33F0000E93F000000000000D23F05
:102A200070B504462DED028B4D1E00EBC500B0EED7
:102A3000408AF0EE608A90ED000B35F0060017D06A
:102A400053EC182B51EC100B00F0F0FD41EC100B87
:102A50006D1E04EBC50090ED001B51EC100B53EC08
:102A6000112B00F089FB41EC100B35F00600E7D18B
:102A7000022D36D0042D1CD0062D1CBFBDEC028BC0
:102A800070BD53EC182B51EC100B00F0CFFD94ED02
:102A90000A1B53EC112B00F06FFB53EC182B00F0CA
:102AA000C5FD94ED081B53EC112B00F065FB41ECC8
:102AB000100B53EC182B51EC100B00F0B7FD94EDFC
:102AC000061B53EC112B00F057FB53EC182B00F0B6
:102AD000ADFD94ED040B53EC102B00F04DFB41ECDD
:102AE000100B53EC182B51EC100B00F09FFD94EDE4
:102AF000021B53EC112B00F03FFB53EC182B00F0A2
:102B000095FD94ED001B53EC112B00F035FBBDEC53
:102B1000028B41EC100B70BD31B504462DED040B5A
:102B20002DED0A8BB0EE41BAF0EE61BA0B989DED37
:102B30000A0B20F00040B0F1795F0DDA51EC100B78
:102B4000FFF7A9FB042808BF00F09AF89DED0A0BD7
:102B5000BDEC0A8B05B030BD53EC102B51EC100BC3
:102B600000F064FD41EC180B9DED0A0B53EC182BA3
:102B700051EC100B00F05AFD41EC190B2C48B0EE53
:102B8000480AF0EE680A05217844FFF749FF9FEDF7
:102B90002ACBB0EE40AAF0EE60AA9CB353EC1C2BFB
:102BA00051EC190B00F042FD41EC1C0B53EC1A2BBD
:102BB00051EC190B00F03AFD9FED210B41EC190B84
:102BC00053EC102B51EC1B0B00F030FD53EC192B88
:102BD00000F036FE53EC182B00F028FD53EC1B2BB5
:102BE00000F02EFE53EC1C2B00F02AFE9DED0A1B7C
:102BF00053EC112B00F018FEBDEC0A8B05B041EC34
:102C0000100B30BDFFE753EC1A2B51EC180B00F002
:102C10000DFD53EC1C2B00F0AFFA53EC192B00F018
:102C200005FD9DED0A1B53EC112B00F0A5FAE3E71F
:102C30009C10000000000000495555555555C5BF72
:102C4000000000000000E03F10B553EC102B51ECE9
:102C5000100B00F091FA41EC100B10BD00000000C9
:102C60009FED050B10B553EC102B51EC100B00F041
:102C70002BFB41EC100B10BD000000000000000019
:102C80009FED050B10B553EC102B51EC100B00F021
:102C9000CDFC41EC100B10BD000000000000001046
:102CA00010B58CB0002209920A92B1F89C301C1227
:102CB0008DF824408DF82530B1F810311B128DF8B5
:102CC000263091F810318DF82730B1F884311B127D
:102CD0008DF8283091F884318DF82930B1F8F83129
:102CE0001B128DF82A3091F8F8118DF82B104FF443
:102CF0000071CDE900120821CDE90221049205926C
:102D000006920792089209AA6946FDF7D7FD0CB012
:102D100010BD000070B504462DED0A8B9FED578A5B
:102D2000087AB7EE009A012801D1B0EE498AB1F9CC
:102D3000040000EE100AF8EEC00A9FED510A80EE82
:102D4000801ADFED500AB1F90600E56861EE209ABD
:102D500001EE100A2846B8EEC11AC1EE001A21EEA3
:102D6000A0AA00F057FE41EC100BFFF721FBB0EEDC
:102D700040BAF0EE60BA19EE900A00F04BFE53EC48
:102D80001B2B00F053FC41EC1B0B284600F042FECD
:102D900041EC100BFFF7A8FAB0EE40CAF0EE60CAA3
:102DA0001AEE100A00F036FE53EC1C2B00F03EFC2D
:102DB00053EC1B2B00F0E0F900F0ACF908EE900AA0
:102DC000284600F027FE41EC100BFFF7F1FAB0EEB9
:102DD00040BAF0EE60BA1AEE100A00F01BFE53EC97
:102DE0001B2B00F023FC41EC1A0B284600F012FECE
:102DF00041EC100BFFF778FAB0EE40BAF0EE60BA93
:102E000019EE900A00F006FE53EC1B2B00F00EFCAE
:102E100053EC1A2B00F014FD00F07CF979EE480A0F
:102E200000EE100A94ED9C1A78EE801A60EE810A8A
:102E30009FED151A41EE481A71EEA01AC4ED251A3D
:102E400070EE681A41EE481A71EEA01AC4ED421AEB
:102E5000F1EE681A71EEC01A38EEC00A41EE481A57
:102E600001EE480A71EEA01A30EE200AC4ED5F1A96
:102E700084ED7C0ABDEC0A8B70BD000000000000F0
:102E80000000254400401C450000964510B504464E
:102E9000A030FDF74FFB04F58A70FDF74BFB04F5FE
:102EA000C470FDF747FB04F5FE70FDF743FB94ED9E
:102EB0002F0ABDEEC00A10EE100AA4F89C0094ED93
:102EC0004C0ABDEEC00A10EE100AA4F8100194EDF1
:102ED000690ABDEEC00A10EE100AA4F8840194ED50
:102EE000860ABDEEC00A10EE100AA4F8F80110BD63
:102EF00082B0CDE9000121F0004001909DED000B72
:102F000002B051EC100B70478A78CB78120212B2E3
:102F10001A4300EE102AB8EEC00A80ED000A0A79C2
:102F20004B79120212B21A4300EE102AB8EEC00A10
:102F300080ED010A897900EE101AB8EE400A80EDA2
:102F4000030A704700F51570FDF752BB4A788B787D
:102F50001204C97842EA03220A4300EE102ADFED88
:102F6000040AB8EE400A80EE201A80ED011A70477C
:102F700000401C4610B5044608784978000200B2AB
:102F8000084300EE100ADFED110A9FED111AB8EEAA
:102F9000C00A70EE600A80EE810ADFED0E0A20EEB4
:102FA000200A84ED030AB5EEC00AF1EE10FA0CD245
:102FB00010EE100A00F02EFD9FED071B53EC112BB5
:102FC00000F0DAF800F0A6F8E06010BD00C0A845F7
:102FD00000F8FF45DB0FC940182D4454FB21194070
:102FE000B0F900009FED131A00EE100A124AB8EE75
:102FF000C00AC0EE010A91ED090AB0EE001A00EE17
:10300000C10ADFED0E0A10EE100A81ED090A9042A6
:1030100003DD30EE600A81ED090AB5EEC00AF1EE7B
:1030200010FA03D230EE200A81ED090A81ED130A6D
:1030300070470000000025440000B4430000B44382
:1030400000B58BB0002209920A92098D0B128DF8FF
:1030500024308DF8251040F2FF11CDE9001208212F
:10306000CDE90221049205920692079209AA6946C7
:10307000FDF724FC0BB000BD10B504462C30FDF765
:103080008FF994ED120ABDEEC00A10EE100A2085E9
:1030900010BD0000FEF712F9FFF7BFF8FEF7D8FFEA
:1030A000FEF786FFFEF7ACFFFEF7E6FEFEF70EFF2B
:1030B0000F4D1048FEF7ECFF0E48FFF7E7FE0D48F6
:1030C000FFF740FF0B48FFF7D7FF0A490A48FFF711
:1030D000E7FD2C460320401CA042FCDD05490648C4
:1030E000FFF7AEFF0320401CA042FCDDE1E700003B
:1030F000A086010034000020E002002081F00041A1
:10310000704780F00040704721F00041704720F088
:103110000040704721F00042A2F16052B2F5801FDA
:1031200001F0004328BFD2F17F6C0BD95FEA001C8D
:1031300043EAC20242EB507018BF704728BF20F02C
:1031400001007047B2F5801FBCBF184670474FEAB8
:10315000410C1CF5001F02D2084600F0D1BC70B52E
:1031600000F00EFB00000089FFF7F6BF4FF00040B3
:10317000A0F580007047000010B591EA030F48BF2A
:1031800083F0004300F16483841A71EB030C05D2D1
:10319000121943EB0C03001B61EB0C01DFF824E177
:1031A0004FEA1154A4EB135C1EEA430F18BF9EEACA
:1031B000445F73D023EA0E03DCF1200E21EA0451B0
:1031C00043F4801332D322FA0CFE10EB0E0023FAE4
:1031D0000CFE41EB0E01CCF1200E03FA0EFE10EBBB
:1031E0000E0051F10001B1F5801FCCF1200E32D25A
:1031F00001EB045112FA0EF2BDE8104058BF7047BF
:10320000401C38BF5FEA420218BF7047002814BF55
:1032100020F0010041F100014FEA410313F5001FC6
:1032200038BF7047A1F1C04100F0F8BA012A43EB62
:103230000302ACF1200CDCF11F0E32BF4FF0000E88
:1032400023FA0CF310EB030041EB0451B4EB115FD4
:10325000D0D0A1EB045101F5801149085FEA30009C
:1032600001EB04510ED350F1000038BF12FA0EFEEC
:1032700008D1BDE81040C9E7401C38BF5FEA4202F0
:10328000CAD1C3E7BDE810404FEA410313F5001F60
:1032900038BF7047A1F1C04100F0C0BA9EEA445F58
:1032A00008D011EA5E0FBDE8104004BF01F00041F4
:1032B00000207047BDE8104070B500F061FA00BF13
:1032C00064FBBE3E0000E0FF2DE9C04130B4DFF8F2
:1032D000A0C23CEA111418BF3CEA131400F0EC80C1
:1032E00081EA03051CEA111444EAD57418BF1CEAEC
:1032F000131500F0C780A4EB05044FF0004545EA24
:10330000C12145EAC32341EA505143EA525304F133
:103310007F74994204F500344FEAC0204FEAC2227C
:1033200008BF904200F09C804FEA13650FF24016F0
:10333000765D4FEA134506FB05F7C7F1807706FB7C
:1033400007F74FEAD737A7FB03687642C8F58038FE
:10335000A7FB06CE38BFA8F1010807FB08E64FF02F
:10336000000EA6FB028CE6FB03CEDCF1000CCEF1D6
:10337000004E38BFAEF1010EA6FB0C584FF000070F
:103380004FF00005E6FB0E87A1FB08C6A0FB07CEA9
:1033900016EB0E0645F10005E1FB076515F1E04E61
:1033A0007EBFA4F580345FEA46066D4116F18007C2
:1033B00045F100054FEA17274FEA066647EA056719
:1033C000A6F1DE46B6F1805F4FEA15251FD93846D3
:1033D00024F0010C05EBC471BCF1FE6F01EB0C1184
:1033E00002D8F0BCBDE8008124425CBF01F5801E1C
:1033F0009EEAC47F02D4F0BCBDE80081244238D4E8
:10340000F0BCA1F1C041BDE8004100F007BA4FEAAD
:10341000D22242EA43524FEAD323A7FB02864FEA65
:10342000D02040EA415007FB03661EEA0E0F4FEA28
:10343000D12105FB026658BFA6EB0056B6EB00563D
:103440004FEA520E4EEAC37E18EB0E0E56EB530EA9
:10345000BDD518EB02085E417F1C55F10005B6E7AB
:103460004FF480154FF000074FF000064FF00008B2
:10347000ADE7F0BC4FF0000001F1C04101F00041A8
:10348000BDE8008111EA0C1F0CEA131500D00CE016
:1034900013EA0C1F00F025804FF00000F0BC81EA19
:1034A000030101F00041BDE80081F0BCBDE800412E
:1034B00081EA030100F0B2B9F0BCBDE8004170B58B
:1034C00000F05EF9097EFC3E00F007B881EA0301D6
:1034D0004FF0000001F00041704781EA030100F065
:1034E0009DB9F0BCBDE800414FF000002149704794
:1034F000FFFDFBF9F7F5F4F2F0EEEDEBE9E8E6E4B9
:10350000E3E1E0DEDDDBDAD8D7D5D4D3D1D0CFCD3F
:10351000CCCBCAC8C7C6C5C4C2C1C0BFBEBDBCBB78
:10352000BAB9B8B7B6B5B4B3B2B1B0AFAEADACAB73
:10353000AAA9A8A8A7A6A5A4A3A3A2A1A09F9F9E4D
:103540009D9C9C9B9A9999989797969595949393FF
:10355000929191908F8F8E8E8D8C8C8B8B8A898996
:103560008888878786858584848383828281818019
:103570000000FF070000F87F4FEA41034FEA535372
:10358000A3F58063D3F11E03C8BFD3F1210C0CDD7A
:103590004FF0004242EAC12242EA505232FA03FCA2
:1035A0008CEAE17CACEBE1707047102BC4BF0020CB
:1035B000704703F5787CBCF1FF3F04D06FF0004208
:1035C00082EA2100704770B500F0DAF84992248051
:1035D00000207047F2E710F0004248BF4042B0FAC6
:1035E00080F310FA03F10AD0C3F11D0303F58063E1
:1035F0004FEA415002EB035202EBD12170474FF0EA
:1036000000007047B0FA80F310FA03F10AD0C3F15A
:103610001D0303F580634FEA41504FEA035202EB6A
:10362000D12170474FF0000070470000DFF848C11B
:1036300070B51CEA111E1EBF1CEA13159EEA0C0F82
:1036400095EA0C0F00F06F8081EA030423EA4C1323
:103650004EEAD47E21EA4C1141F4801143F48013E8
:10366000AE44A1FB024CA0FB0365AEF17F7E361990
:1036700055EB0C05A1FB034C4CF10003A0FB021C15
:1036800016EB0C06654153F10003094218BF46F0E2
:10369000010613F4007F0BD14FEA03314FEA0530E6
:1036A000340341EA155140EA16506FF003020AE074
:1036B0004FEAC3214FEAC520F40241EA555140EADE
:1036C00056506FF0020202EB2E4201EB025585EAE2
:1036D000CE710AD05FEA440C18BF24F0004450F1C8
:1036E000000041F1000120EAD47040F2FE7C624506
:1036F00000D270BDA84214BF4FF080444FF0404448
:10370000002E08BF0024BEF1806FA8BFA1F1C04108
:10371000BDE8704080F282804FF0000001F1C041AE
:1037200001F0004170479EEA0C0F0CEA131518BF18
:1037300095EA0C0F06D04FF0000081EA030E0EF060
:10374000004170BD00F01CF88900013E00F007B890
:1037500000F009B84FEA430C5FEA5C5C08D081EAEC
:10376000030100F05BB84FEA410C5FEA5C5CF6D104
:103770004FF00000014970470000FF070000F87F8C
:103780000EF1020E2EF0030E5EF8046B364205D4E5
:10379000012A43EB030515F5001F12D8012841EB60
:1037A000010C1CF5001F0CD80ED14FEAD17C15F589
:1037B000001F0CEB4C0C0CF1020C08BF4CEBD37C43
:1037C00004E04FF0080C01E04FEAD37C0CEB4C0511
:1037D00026FA05F606F00706B6F1040C06D20EEB43
:1037E000860CBDE870404CF0010C6047DFE80CF03F
:1037F000090B02024FF000414FF00000A1F500213B
:1038000070BD19461046012851EB010418BFD4F5CC
:10381000001484BF002001F0004170BD0808A0F52D
:1038200000114FEA3101704791EA030F10B581F0A2
:1038300000413FF5A9AC83F0004300F009B8000057
:1038400010B591EA030F48BF83F000433FF59CACED
:10385000841A71EB030C07D212198CF0004C43EB65
:103860000C03001B61EB0C01DFF8A4E14FEA1154DB
:10387000A4EB135C1EEA430F18BF9EEA445F00F0FE
:10388000B08023EA6E03524221EA0451C3EB6E0377
:1038900038BF5B1EDCF1200E25D322FA0CFE10EBA4
:1038A0000E0043FA0CFE41EB0E01CCF1200E03FAA0
:1038B0000EFE10EB0E0051F10001CCF1200E29D4C8
:1038C00012FA0EF201EB0451BDE8104058BF7047E8
:1038D000401C1CBFB2F1004F704700280CBF491CB0
:1038E00020F00100704712EB020E43EB030218BFF9
:1038F0004FF0010E4EEA4202ACF1200CDCF11E0E3C
:1039000054D943FA0CFE10EB0E0051F1FF31CCF10B
:103910001E0ED5D50EF1010E12FA0EFE404141EBFE
:10392000010101EB445C5FEA5C5C10D910EBDE70D6
:1039300001EB045138BFBEF1004FBDE8104018BF85
:10394000704700280CBF491C20F00100704730D29E
:103950004FEAD42C11F5001124F400641BD0B1FA05
:1039600081F20B3AA41AA41ED2F12003914030FA3E
:1039700003F31943904001EBCC71002C01EB04518F
:10398000BDE81040A8BF704701F1C0414FF00000F2
:1039900001F000417047B0FA80F310FA03F100D152
:1039A00010BDE41A173C4805C90AE4E701EB0451CD
:1039B00010BD491001EB0451BDE810404FEA300042
:1039C00002E04FF0000170474A0008BF0042F8D003
:1039D000B2F5001F28BF704701F000414FF0000012
:1039E00070479EEA445F07D011EA5E0FBDE81040C1
:1039F00004BF002100207047BDE8104070B5FFF7FC
:103A0000BFFE00BF40DFF63E83F000411046704726
:103A10000000E0FF43004FEAD30C4FEA3C0C434068
:103A20001FBF40070CF1605113F0FE4F70471CF0B0
:103A3000006F03D100200CF0004170470CF00043F0
:103A400043EA507010B540EACC0000F00EF800BF19
:103A5000000000924FEA0001FFF7E0BE4FF0004186
:103A60004FF00000A1F5002170470EF1020E2EF07C
:103A7000030E5EF8044B244204D44FEA4102B2F133
:103A80007F4F11D84FEA4003B3F17F4F0CD80ED1CE
:103A90004FEAD07CB2F17F4F0CEB4C0C0CF1020CD6
:103AA00008BF4CEBD17C04E04FF0080C01E04FEA7A
:103AB000D17C0CEB4C0324FA03F404F00704B4F1BA
:103AC000040C06D20EEB840CBDE810404CF0010C47
:103AD0006047DFE80CF0070802024FF00040A0F555
:103AE000800010BD0846420018BFD2F1807288BF26
:103AF00000F0004010BD4FF04070E1EE100A70473A
:103B0000FF2141EAD050C0057047000102030405BF
:103B10000607080C101418203040000000000000B8
:103B2000000001020304060708090000000000006D
:103B30004C5555555555A53F7751C1166CC156BFCB
:103B40009015CB19A001FA3EAD529C804F7E92BEDB
:103B5000C4B1B4BD9EEE213ED43888BEE9FAA8BDFA
:103B600000004054FB21F93F3163621A61B4D03D3B
:103B70000000601A61B4D03D7370032E8A19A33B14
:103B80000000002E8A19A33BC14920259A837B3966
:103B900000000000000000006E83F9A22915444EC9
:103BA000D15727FCC0DD34F5999562DB4190433C49
:103BB000AB6351FE61C5BBDE3A6E24B7E0D24D4225
:103BC000EA2E49061C92D1091CEB1DFE3EA729B125
:103BD000F53582E88444BB2E26709CE9417E5FB4B3
:103BE00039D69139F43953838B5F849C3B28F9BDD6
:103BF000FF97F81F0F9805DE8B112FEF1F6D0A5AE4
:103C0000CF7E366DB709CB27663F464F2DEA5F9EC4
:103C1000C7BA27757BF1E5EBF739073DEA92528A7F
:103C2000B15FFB6B085D8D1FA6F810111111813F6C
:103C3000D561C119A0012ABF7DFEB157E31DC73E62
:103C4000EB9C2B8AE6E55ABE7CD5CF5A3AD9E53DA6
:103C5000703C00080000002018000000140200085A
:103C6000883C000818000020F0090000300200081D
:103C70000000000000000000100000000100000033
:083C8000000000000024F40024
:04000005080001D915
:00000001FF
