:020000040800F2
:10000000F0090020790200081B4A0008FF400008A0
:10001000F54900088B040008815A00080000000020
:10002000000000000000000000000000C14D0008BA
:10003000E7080008000000001F4A0008C34D000840
:10004000930200089302000893020008930200083C
:10005000930200089302000893020008930200082C
:100060009302000893020008930200081507000895
:10007000930200089302000893020008930200080C
:1000800093020008930200089302000893020008FC
:1000900093020008F1080008930200089302000888
:1000A000930200084D4E00089302000893020008D6
:1000B00093020008930200089302000893020008CC
:1000C000930200089302000893020008E54A000822
:1000D000930200089302000893020008395A0008AE
:1000E000930200089302000893020008930200089C
:1000F000930200089302000893020008930200088C
:10010000930200089302000893020008930200087B
:10011000930200089302000893020008930200086B
:10012000930200089302000893020008930200085B
:10013000930200089302000893020008930200084B
:1001400093020008930200089302000800000000D8
:10015000000000000000000000000000000000009F
:1001600000000000000000000000000093020008F2
:10017000930200089302000893020008930200080B
:1001800093020008930200089302000893020008FB
:10019000930200080000000001090008110900088E
:1001A00093020008930200089302000893020008DB
:1001B00093020008930200089302000893020008CB
:1001C00093020008930200089302000893020008BB
:1001D000930200089302000800F002F800F03CF8D7
:1001E0000AA090E8000C82448344AAF10107DA4592
:1001F00001D100F031F8AFF2090EBAE80F0013F0A8
:10020000010F18BFFB1A43F001031847AC67000049
:10021000CC670000103A24BF78C878C1FAD85207DA
:1002200024BF30C830C144BF04680C607047000070
:100230000023002400250026103A28BF78C1FBD8EF
:10024000520728BF30C148BF0B6070471FB506F08A
:1002500080FB1FBD10B510BD00F0E2F81146FFF79E
:10026000F5FF06F023F800F000F903B4FFF7F2FF02
:1002700003BC00F003F90000094880470948004723
:10028000FEE7FEE7FEE7FEE7FEE7FEE7FEE7FEE746
:10029000FEE7FEE704480549054A064B70470000A3
:1002A000394E0008D9010008F0030020F0090020B1
:1002B000F0050020F005002053EA020C00F06980F0
:1002C0002DE9F04B4FF00006002B1FBFB3FA83F56A
:1002D00003FA05F424FA05F65E4012BF1643B2FA9B
:1002E00082F502FA05F4C5F120051EBF22FA05FCCD
:1002F00044EA0C04203556EA044C4FEA144418BF73
:10030000641C4FF000084FF00009904271EB030CA1
:1003100039D3002919BFB1FA81F701FA07F6B0FA0B
:1003200080F700FA07F6C7F120071EBF20FA07FC86
:1003300046EA0C062037B6FBF4FCA7EB0507103F96
:1003400007F01F0BCBF120060CFA0BFB2CFA06F67C
:1003500044BFB3460026202FA4BF5E464FF0000BDB
:100360005BEA060C08BF4FF0010B19EB0B09ABFB66
:10037000027C48EB0608C01B06FB02CC0BFB03CC3F
:1003800071EB0C01C1E70B46024641464846BDE809
:10039000F08B13B54FF000004FF00001AFF3008079
:1003A000BDE81C4070474FF0000200B5134694466C
:1003B0009646203922BFA0E80C50A0E80C50B1F1BD
:1003C0002001BFF4F7AF090728BFA0E80C5048BFD1
:1003D0000CC05DF804EB890028BF40F8042B08BF6F
:1003E000704748BF20F8022B11F0804F18BF00F86B
:1003F000012B704770477047704710B500F008F840
:10040000006810BD10B5044600F002F8046010BD8D
:10041000004870478C030020004870478C03002080
:100420007546FFF7F9FFAE4605006946534620F0D2
:100430000700854618B020B5FFF72CFFBDE8204027
:100440004FF000064FF000074FF000084FF0000B90
:1004500021F00701AC46ACE8C009ACE8C009ACE843
:10046000C009ACE8C0098D46704710B50446AFF32B
:1004700000802046BDE81040FFF7F7BE0149182074
:10048000ABBEFEE726000200704700BFFEE700B5E6
:100490000146084604F0C4FA084600F005F808468C
:1004A00000F084F800BD0000D0ED0C0AC0ED0D0A8C
:1004B000D0ED080A90ED091A70EEC10AC0ED0C0AE1
:1004C000D0ED0C0A90ED0D1A70EEC10AB0EE600A84
:1004D000D0ED100A90ED121AF4EEC10AF1EE10FA06
:1004E0000EDDD0ED0C0AF5EEC00AF1EE10FA07DDD4
:1004F000D0ED100A90ED0C1A70EEC10AC0ED100A92
:10050000D0ED100A90ED131AF4EEC10AF1EE10FAD4
:100510000ED2D0ED0C0AF5EEC00AF1EE10FA07D2B9
:10052000D0ED100A90ED0C1A70EEC10AC0ED100A61
:10053000D0ED100A90ED0C1A70EE810AC0ED100A91
:10054000D0ED030A90ED0C1A60EE810A90ED041ACA
:10055000D0ED101A41EE210A90ED051A41EE000A85
:10056000C0ED060AD0ED060A9FED0E1AF4EEC10AA0
:10057000F1EE10FA03DDDFED0B0AC0ED060AD0ED57
:10058000060A9FED091AF4EEC10AF1EE10FA03D241
:10059000DFED050AC0ED060AD0ED060AC0ED0A0A35
:1005A000704700000000AF430000AFC3D0ED0E0A5B
:1005B000C0ED0F0AD0ED0A0A90ED0B1A70EEC10AD9
:1005C000C0ED0E0AD0ED0E0A90ED0F1A70EEC10AC2
:1005D000B0EE600AD0ED110A90ED141AF4EEC10AE3
:1005E000F1EE10FA0EDDD0ED0E0AF5EEC00AF1EED6
:1005F00010FA07DDD0ED110A90ED0E1A70EEC10A67
:10060000C0ED110AD0ED110A90ED151AF4EEC10AF1
:10061000F1EE10FA0ED2D0ED0E0AF5EEC00AF1EEB0
:1006200010FA07D2D0ED110A90ED0E1A70EEC10A41
:10063000C0ED110AD0ED110A90ED0E1A70EE810A8C
:10064000C0ED110AD0ED000A90ED0E1A60EE810A9D
:1006500090ED011AD0ED111A41EE210A90ED021A27
:1006600041EE000AC0ED070AD0ED070A9FED0C1A13
:10067000F4EEC10AF1EE10FA03DDDFED090AC0ED78
:10068000070AD0ED070A9FED071AF4EEC10AF1EE52
:1006900010FA03D2DFED030AC0ED070A704700002D
:1006A0000050C3460050C3C69FED180A80ED090AEA
:1006B0009FED160A80ED0B0A9FED140A80ED0C0ADF
:1006C0009FED120A80ED0D0A9FED100A80ED0E0AD3
:1006D0009FED0E0A80ED0F0A9FED0D0A80ED080ACE
:1006E0009FED0A0A80ED0A0A9FED080A80ED100AC4
:1006F0009FED060A80ED110A9FED040A80ED060ABF
:100700009FED020A80ED070A70470000000000001C
:100710000000B44210B5024800F02FFA10BD0000EE
:100720002C03002030B50E4D0468AC4201D20D49B7
:1007300001E00C4920310B460478083C1425B4FB39
:10074000F5F2446CA40803EB84048464054C803403
:10075000C46402F01F050124AC40046530BD0000F4
:10076000080402400008024001794A1E064B03EBD0
:1007700082024265044A403282654A1E02F01F032B
:1007800001229A40C26570470009024030B5D0E9A5
:1007900013546C60446D14B1D0E916546C6090F839
:1007A000444004F01F050124AC40056C6C600468F3
:1007B00063608468102C04D10468A2600468E1605E
:1007C00003E00468A1600468E26030BD01B97047CD
:1007D0000A784B7842EA0322C2F30A0202804A787E
:1007E000D2108B7842EA4312C2F30A0242808A781E
:1007F0009211CB7842EA83020B7942EA8322C2F358
:100800000A0282800A7952104B7942EAC312C2F37B
:100810000A02C2804A791211920802724A79C2F31E
:10082000011242728A79CB7942EA032282810A7AE2
:100830004B7A42EA0323C3818A7ACB7A42EA0323C2
:1008400003820B7B43824B7B83828A7BCB7B42EA96
:100850000322C2820A7C4B7C42EA0322C2F30A02D0
:1008600042810288A2F5806212B202804288A2F51B
:10087000806212B242808288A2F5806212B28280C7
:10088000C288A2F5806212B2C280B0F90020052AA7
:1008900006DCB0F9002012F1050F01DB0022028016
:1008A000B0F90220052A06DCB0F9022012F1050F8A
:1008B00001DB00224280B0F90420052A06DCB0F9F1
:1008C000042012F1050F01DB00228280B0F906201E
:1008D000052A06DCB0F9062012F1050F01DB002223
:1008E000C28000BF73E7704772B600BFFEE700002A
:1008F00010B5024800F041FC10BD000020010020AE
:1009000010B5024800F039FC10BD00008401002041
:1009100010B5024800F031FC10BD00008401002039
:1009200010B51D4A1D4C0368A34201D102F5547253
:100930001B4C0368A34201D102F5D4620264036830
:10094000D3F8803023F4F814838E44EA0343046818
:10095000C4F8803002F1700343640368D3F8803038
:1009600023F0706490F8383044EA03630468C4F8F4
:10097000803002F1B0038364D833C364D833036595
:1009800018334365114602E000230B60091D02F590
:1009900054739942F8D310BD00A400400068004091
:1009A000006C00402DE9F041054614461E46D1F882
:1009B00004C0BCF1000F0AD1D1F810C0D1F80880F2
:1009C0004CEA080CB1F800804CEA88430BE0D1F8FF
:1009D00010C04CF0804CD1F808804CEA080CD1F8DB
:1009E00000804CEA080391F82080D1F81CC04CEA42
:1009F000086CD1F818804CEA080CD1F814804CEA45
:100A0000080CB1F80C804CEA084706EBC608D5F88C
:100A100054C00CEBC8021360121D1760121D002099
:100A200019E000F1030C14F80CC04FEA0C6800F157
:100A3000020C14F80CC048EA0C4800F1010C14F840
:100A40000CC048EA0C2C14F800804CEA080CC2F8E0
:100A500000C0121D001DDFF81480D1F80CC018F87A
:100A60000CC08445DDD8BDE8F0810000666900084F
:100A70000146002091F82520022A03D00422CA63EF
:100A8000012027E00A68126822F00E020B681A6043
:100A90008A6C126822F480728B6C1A600A68126881
:100AA00022F001020B681A6091F8442002F01F0343
:100AB00001229A400B6C5A60D1E913325A604A6D98
:100AC00042B14A6D126822F480724B6D1A60D1E90E
:100AD00016325A60012281F8252000BF002281F8D9
:100AE000242000BF704770B50446002594F8250007
:100AF00002280BD00420E063012084F8250000BF09
:100B0000002084F8240000BF012534E0206800683C
:100B100020F00E00216808602068006820F00100C5
:100B200021680860A06C006820F48070A16C0860E7
:100B300094F8440000F01F0101208840216C4860B7
:100B4000D4E913104860606D40B1606D006820F416
:100B50008070616D0860D4E916104860012084F847
:100B6000250000BF002084F8240000BFA06B10B156
:100B70002046A16B8847284670BD70B50446206C9E
:100B800005682068066894F8440000F01F010420FE
:100B900088402840E0B106F00400C8B12068006831
:100BA00000F0200028B92068006820F004002168C7
:100BB000086094F8440000F01F0104208840216C74
:100BC0004860206B002856D02046216B884752E0B1
:100BD00094F8440000F01F0102208840284018B318
:100BE00006F0020000B32068006800F0200040B961
:100BF0002068006820F00A0021680860012084F85D
:100C0000250094F8440000F01F0102208840216C68
:100C1000486000BF002084F8240000BFE06A50B3A1
:100C20002046E16A884726E094F8440000F01F015E
:100C3000082088402840F0B106F00800D8B12068AC
:100C4000006820F00E002168086094F8440000F06D
:100C50001F0101208840216C48600120E06384F876
:100C6000250000BF002084F8240000BF606B10B195
:100C70002046616B884770BD70B504460CB90120F1
:100C800070BD2F49206888420BD22E492068401A37
:100C90001421B0FBF1F0800060642A480838206419
:100CA0000AE027492068401A1421B0FBF1F08000C7
:100CB0006064234808382064022084F825002068F6
:100CC000056847F6F0708543D4E9020108432169BD
:100CD000084361690843A1690843E1690843216A3F
:100CE00008430543206805602046FFF71BFDA06808
:100CF000B0F5804F01D1002060602079A16C0860C0
:100D0000D4E913104860606860B16068042809D8AD
:100D10002046FFF729FD0020616D0860D4E9161018
:100D2000486003E000206065A065E0650020E063A6
:100D3000012084F82500002084F8240000BF9FE7EC
:100D400008040240080002402DE9F04104460D4627
:100D500016461F464FF0000800BF94F824000128F3
:100D600002D10220BDE8F081012084F8240000BFF8
:100D700094F8250001283FD1022084F825000020A6
:100D8000E0632068006820F00100216808603B46AD
:100D9000324629462046FFF7F9FC206B30B1206827
:100DA000006840F00E00216808600BE020680068D1
:100DB00020F00400216808602068006840F00A0004
:100DC00021680860A06C006800F4803028B1A06C35
:100DD000006840F48070A16C0860606D28B1606D9F
:100DE000006840F48070616D08602068006840F021
:100DF00001002168086006E000BF002084F824009C
:100E000000BF4FF002084046ACE7000070B5044652
:100E100000F070FD06462546681C10B104480068C5
:100E2000054400BF00F066FD801BA842FAD370BDE8
:100E30005400002070B50346144693F85C5001F44A
:100E4000C07000B100BF012D01D0022D7DD1186806
:100E5000826D01F0070010B102F0010018B301F03B
:100E6000380010B102F00200E8B101F4E07010B1F6
:100E700002F00400B8B101F4F05010B102F0080023
:100E800088B101F4604010B102F0100058B101F4D3
:100E9000403010B102F0200028B101F47C0040B1D4
:100EA00002F0400028B91868C06D40F001001E68CB
:100EB000F06501F0070010B102F0010018BB01F06D
:100EC000380010B102F00200E8B901F4E07010B18E
:100ED00002F00400B8B901F4F05010B102F00800BB
:100EE00088B901F4604010B102F0100058B901F463
:100EF000403010B102F0200028B901F47C0040B16C
:100F000002F0400028B11868C06D40F002001E6871
:100F1000F06501F0800030B11868D0F8DC002043A3
:100F20001E68C6F8DC0001F4807030B11868D0F893
:100F3000E00020431E68C6F8E0001868406D0843D2
:100F40001E687065002070BDFFE7186E40F002005B
:100F500018660120F7E72DE9F04104460E461746D2
:100F6000706800B900E000BF94F85C00022821D14D
:100F70002068D0F8C40000F4001030B1206E40F4B6
:100F8000007020660120BDE8F0812068D0F8C40020
:100F9000C0F301452B463A4631462046FFF702FD95
:100FA0000120A8402168C1F8CC000120A840A0651C
:100FB0000020E8E7206E40F0080020660120E2E70C
:100FC000F0B5024692F85C60012E01D0022E23D1CA
:100FD000086880B9087A80070F7B40EAC7600F8AEB
:100FE00040EA07404F6940EA0704176C486807EB7E
:100FF00080031C600EE00F7B086940EA47740F7A9B
:10100000486940EA8775576C486807EBC0031C6065
:101010001B1D1D600020F0BD106E40F00200106628
:101020000120F8E7704770472DE9F04304460E466B
:101030009C46002394F85C80B8F1020F7DD1402ECD
:1010400025D12068D0F8900000F00F0030B9206E54
:1010500040F4807020660120BDE8F0832068D0F85D
:101060009000C0F3006030B12068D0F88000C0F379
:10107000402000B101232068D0F89000C0F3012087
:10108000034403EBC309A06C00EBC90123E0206813
:10109000D0F8980000F00F0028B9206E40F480705E
:1010A00020660120D8E72068D0F89800C0F30060DF
:1010B00030B12068D0F88000C0F3002000B10123D7
:1010C0002068D0F89800C0F30120034403EBC30963
:1010D000E06C00EBC901086800F080405060506887
:1010E00020B90868C0F38A40106003E0086820F067
:1010F00060401060086800F000509060086800F0E0
:1011000000401061091D088880B2D0610868C0F3F2
:101110000340D060086800F480105061086800F453
:10112000001090610868C0F3066010620868C00F84
:101130005062091D0F46002504E015E0785D0CF8AB
:1011400005006D1CDFF82C90D06819F80000A8424B
:10115000F4D8402E03D12068C0F8943002E0206813
:10116000C0F89C30002077E7206E40F00800206631
:10117000012071E76669000870472DE9FC5F0446AD
:101180002068006D00F4E0572068406D074020683B
:10119000006D00F007082068406D00EA080820682C
:1011A000006D00F038092068406D00EA09092068E8
:1011B000006D00F4710A2068406D00EA0A0A206898
:1011C000006D00F4602B2068406D00EA0B0B206876
:1011D000456D2068066DC6F3801040B1C5F38010E0
:1011E00028B14020216808652046FFF7C5FFC6F3F7
:1011F0000020A0B1C5F3002088B12068D0F8D80045
:1012000000902068D0F8E0000099084000904FF46A
:101210008070216808652046009900F07BFA2FB1A4
:10122000206807653946204600F076FAB8F1000FCD
:1012300006D02068C0F850804146204600F030FAC1
:10124000B9F1000F06D02068C0F8509049462046FA
:1012500000F046FAC6F3402048B1C5F3402030B153
:101260004FF4007021680865204600F056FAC6F376
:10127000C01098B1C5F3C01080B12068D0F8D40078
:1012800001902068D0F8DC0001990840019080208E
:10129000216808652046019900F03DFAC6F3403008
:1012A00048B1C5F3403030B14FF4005021680865B3
:1012B000204600F02EFAC6F3C03048B1C5F3C03066
:1012C00030B14FF4004021680865204600F020FA54
:1012D000C6F3803050B1C5F3803038B14FF4804050
:1012E00021680865206E40F080002066BBF1000F89
:1012F00006D02068C0F850B059462046FFF793FE4C
:10130000BAF1000F06D02068C0F850A0206E40EA65
:101310000A002066206E10B12046FFF783FEBDE86C
:10132000FC9F000070B504460CB9012070BD8149D6
:101330002068884200D100BFA068B0F5407F00D18E
:1013400000BF94F85C0028B9002084F85D002046B6
:1013500000F0F4F82068806920F0100021688861AE
:1013600000F0C8FA05460DE000F0C4FA401B0A2858
:1013700008D9206E40F001002066032084F85C004C
:101380000120D3E72068806900F008000828EBD02E
:101390002068806940F001002168886100F0AAFAA5
:1013A00005460DE000F0A6FA401B0A2808D9206E79
:1013B00040F001002066032084F85C000120B5E7BE
:1013C0002068806900F001000028EBD02068806967
:1013D00040F002002168886156492068884202D1A5
:1013E000554960680860207C012806D12068806922
:1013F00020F040002168886105E02068806940F0A5
:10140000400021688861607C012806D120688069DD
:1014100040F480402168886105E02068806920F4FC
:10142000804021688861A07C012806D120688069FD
:1014300020F480502168886105E02068806940F4CC
:101440008050216888612068806920F44070A1681C
:101450000843216888612068806920F0A400216821
:1014600088612068006920F0100021680861E06848
:10147000012806D12068806940F004002168886155
:1014800020E0E068F0B1E068022815D020688069AB
:1014900040F08000216888612068006940F01000F9
:1014A00021680861E06803280CD12068806940F059
:1014B00020002168886105E02068806940F02000F4
:1014C00021688861207E401E4106E069401E41EA95
:1014D0000020216A491E0843A18A491E40EA0140B2
:1014E0002168C861A068B0F5407F0FD1A06A401E96
:1014F000E16A491E40EA0121206B401E41EA0011C9
:10150000A08C401E41EA00402168C8602068D0F8E5
:10151000C000E16B08432168C1F8C0002046FFF716
:10152000FFF90020A0652066012084F85C000020FF
:10153000FCE60000006400400065004010B59CB06F
:101540000446142117A8FEF72EFF542102A8FEF727
:101550002AFF4E492068884245D1801402904003FA
:10156000109002A800F032FB08B1FFF7BDF948481F
:101570000068401C464908600846006801280DD1F3
:1015800000BF4448806D40F00070424988650846BD
:10159000806D00F00070019000BF00BF00BF3D48AB
:1015A000C06C40F002003B49C8640846C06C00F0C3
:1015B0000200019000BF00BF4FF44070179002205E
:1015C0001890002019901A9009201B9017A93248F2
:1015D00000F0A4F800221146152000F00FFA1520A3
:1015E00000F0F8F950E02D49206888424CD1801471
:1015F00002904003109002A800F0E8FA08B1FFF74B
:1016000073F923480068401C2149086008460068B7
:1016100001280DD100BF1F48806D40F000701D49AA
:1016200088650846806D00F00070019000BF00BF23
:1016300000BF1848C06C40F002001649C864084654
:10164000C06C00F00200019000BF00BF4FF440509A
:10165000179002201890002019901A9009201B90D2
:1016600017A90D4800F05AF800221146562000F044
:10167000C5F9562000F0AEF900221146572000F0BF
:10168000BDF9572000F0A6F91CB010BD0064004061
:10169000480000200010024000040048006800409C
:1016A00030B58DB004460D460B48844212D101ABD3
:1016B00003AA40212046FFF7B7FC50B90398A0F2D7
:1016C000062020B901A9054804F0E0FB00E000BFB6
:1016D00000BF00BF0DB030BD20010020AC000020D5
:1016E0007047014691F85C0001280BD1022081F877
:1016F0005C000868806920F001000A6890610020A1
:1017000008667047086E40F0040008660120F8E79C
:1017100070477047704770477047704778B502460A
:101720000B460021CAE001268E401D6805EA06042A
:10173000002C73D01D7905F00305012D04D01D790F
:1017400005F00305022D13D190684E000325B54026
:10175000A8434E00DD68B5402843906050680125DD
:101760008D40A8431D79C5F300158D402843506076
:101770001D7905F00305032D09D0D0684E0003251F
:10178000B540A8434E009D68B5402843D0601D7900
:1017900005F00305022D13D1CE0802F1200555F8FE
:1017A00026004D07EE0E0F25B540A8434E07F60E56
:1017B0001D69B5402843CE0802F1200545F82600F2
:1017C00010684E000325B540A8431D7905F00305B8
:1017D0004E00B540284310605D6805F44035002D8B
:1017E0006BD000BF384D2D6E45F00105364E356685
:1017F00035462D6E05F00105009500BF00BF4FEA8C
:10180000B6358E0855F826008D072E0F0F25B540EA
:10181000A843B2F1904F02D100251AE04DE02B4DC4
:10182000AA4201D1012514E0294DAA4201D1022585
:101830000FE0284DAA4201D103250AE0264DAA4215
:1018400001D1042505E0254DAA4201D1052500E07E
:1018500006258E07360FB5402843214D8E0845F8E2
:101860002600204D2868A0435D6805F4801505B169
:1018700020431C4D28602D1D2868A0435D6805F499
:10188000001505B12043174D2D1D2860154D2D1F46
:101890002868A0435D6805F4003505B12043114D6B
:1018A0002D1F28602D1F2868A0435D6805F4803532
:1018B00005B120430B4D083D2860491C1D68CD40F3
:1018C000002D7FF430AF78BD0010024000040048C6
:1018D00000080048000C00480010004800140048B0
:1018E00008000140080401400AB1816100E0816202
:1018F0007047000001480068704700004C0000205D
:1019000003480068034909680844014908607047B2
:101910004C0000205400002010B50024032000F0EB
:10192000ABF80F2000F008F808B1012401E000F046
:101930002FF8204610BD000070B504460025114860
:101940000068D8B10F4800684FF47A71B1FBF0F02D
:101950000D490968B1FBF0F6304601F02CFC58B98E
:10196000102C07D200222146501E00F047F80748ED
:10197000046004E0012502E0012500E0012528467D
:1019800070BD0000540000205800002050000020CE
:1019900008B500BF0E48006E40F001000C49086613
:1019A0000846006E00F00100009000BF00BF00BFBD
:1019B0000846806D40F0805088650846806D00F0D4
:1019C0008050009000BF00BF00F0F6F808BD000096
:1019D000001002400146084600280DDB00BF00BF92
:1019E00000F01F0301229A4043099B0003F1E0230A
:1019F000C3F8002100BF00BF00BF70472DE9F05FB2
:101A000080460D46164604F051F8074639462A46E8
:101A1000334601F00700C0F1070ABAF1040F02D9FA
:101A20004FF0040A01E0C0F1070AD14600F1040AB0
:101A3000BAF1070F02D24FF0000A01E0A0F1030A49
:101A4000D4464FF0010A0AFA09FAAAF1010A0AEA91
:101A5000020A0AFA0CFA4FF0010B0BFA0CFBABF17D
:101A6000010B0BEA030B4AEA0B042146404604F043
:101A700025F8BDE8F09F000000BF00F00702064B0C
:101A800019684FF6FF031940044B0B4343EA022148
:101A9000014B196000BF70470CED00E00000FA0533
:101AA00002468ABB4148006800F4C060B0F5806F10
:101AB0002BD13E488030006820F480703B4BC3F847
:101AC00080001846006820F4C06040F40070186080
:101AD0003748006832235843364BB0FBF3F0411CC3
:101AE00000E0491E3148406900F48060B0F5806F25
:101AF00001D10029F5D12D48406900F48060B0F58E
:101B0000806F51D10320704708E02848803000687A
:101B100020F48070254BC3F8800045E0B2F5007FCB
:101B20003AD12248006800F4C060B0F5806F2AD135
:101B30001E488030006840F480701C4BC3F8800061
:101B40001846006820F4C06040F40070186018481F
:101B5000006832235843174BB0FBF3F0411C00E000
:101B6000491E1248406900F48060B0F5806F01D1D1
:101B70000029F5D10D48406900F48060B0F5806F10
:101B800012D10320BFE709488030006840F480701C
:101B9000064BC3F8800007E00448006820F4C060EA
:101BA00040F48060014B18600020ACE700700040FA
:101BB0005800002040420F000348806840F48040F5
:101BC0000149886070470000007000402DE9F8432B
:101BD00004460027B846206800F40020B0F5002F26
:101BE00073D1B946FD48806D00F0805078B900BFD0
:101BF000FA48806D40F08050F84988650846806D4D
:101C000000F08050009000BF00BF4FF00109F44881
:101C1000006840F48070F2490860FFF76BFE0646EA
:101C200006E0FFF767FE801B022801D9032705E0C5
:101C3000EB48006800F480700028F2D000BF002F4D
:101C400046D1E6489030006800F44075CDB1206D73
:101C5000A84216D0E1489030006820F44075DF4873
:101C6000D0F8900040F48030DC49C1F8900008467C
:101C7000D0F8900020F48030C1F890000846C0F8F9
:101C8000905005F00100A0B1FFF734FE064608E0D1
:101C9000FFF730FE801B41F28831884201D90327CB
:101CA00006E0CE489030006800F002000028EFD037
:101CB00000BF5FB9C9489030006820F44070216DC2
:101CC0000843C649C1F8900003E00CE0B84600E0C4
:101CD000B846B9F1010F05D1C048806D20F08050A1
:101CE000BE49886500BF207800F0010048B1BB48BC
:101CF0008830006820F0030061680843B749C1F8E4
:101D00008800207800F00200022809D1B34888300A
:101D1000006820F00C00A1680843B049C1F88800B1
:101D2000207800F00400042809D1AC48883000680D
:101D300020F03000E1680843A849C1F88800207805
:101D400000F00800082809D1A4488830006820F075
:101D5000C00021690843A149C1F88800207800F03B
:101D60001000102809D19D488830006820F4407088
:101D7000616908439949C1F88800207800F0200083
:101D8000202809D195488830006820F44060A16976
:101D900008439249C1F88800207800F040004028AC
:101DA00009D18E488830006820F44050E16908432A
:101DB0008A49C1F88800207800F08000802809D185
:101DC00086488830006820F44040216A08438349EF
:101DD000C1F88800208800F48070B0F5807F09D1B8
:101DE0007E488830006820F44030616A08437B49AF
:101DF000C1F88800206800F40030B0F5003F09D138
:101E000076489C30006820F00300A16A08437349BB
:101E1000C1F89C00208800F40070B0F5007F09D163
:101E20006E488830006820F44020E16A08436B491E
:101E3000C1F88800208800F48060B0F5806F13D16D
:101E400066488830006820F44010216B08436349DD
:101E500088310860206BB0F5801F05D15F48C068ED
:101E600040F480105D49C860208800F40060B0F53F
:101E7000006F13D159488830006820F44000616B2E
:101E80000843564988310860606BB0F5800F05D172
:101E90005248C06840F480105049C860208800F45F
:101EA0008050B0F5805F13D14C488830006820F036
:101EB0004070A16B0843494988310860A06BB0F1BC
:101EC000807F05D14548C06840F480104349C86010
:101ED000208800F40050B0F5005F13D13F488830EF
:101EE000006820F04060E16B08433C49883108609D
:101EF000E06BB0F1006F05D13848C06840F4801045
:101F00003649C860208800F48040B0F5804F13D176
:101F100032488830006820F04060216C08432F4927
:101F200088310860206CB0F1006F05D12B48C06883
:101F300040F480102949C860208800F40040B0F5C2
:101F4000004F13D125488830006820F04050616C64
:101F50000843224988310860606CB0F1805F05D188
:101F60001E48C06840F480301C49C860206800F4F6
:101F70008030B0F5803F13D118488830006820F0D9
:101F80004040A16C0843154988310860A06CB0F14D
:101F9000804F05D11148C06840F480300F49C860B7
:101FA000206800F48020B0F5802F13D10B489C30BE
:101FB000006820F44010E16C084308499C31086037
:101FC000E06CB0F5001F05D10448C06840F48010F3
:101FD0000249C8604046BDE8F88300000010024096
:101FE000007000402DE9F04104460D464FF0000816
:101FF00014B90120BDE8F0817D48006800F00F00B1
:10200000A8420ED27A48006820F00F002843784991
:1020100008600846006800F00F00A84201D00120C7
:10202000E8E7207800F00100002864D06068032809
:1020300023D17048006800F0007008B90120D9E78A
:1020400002F01CFD06466C48864237D96948806814
:1020500000F0F00030B1207800F0020002282DD10D
:10206000A06858BB6348806820F0F00040F0800012
:10207000604988604FF0800820E06068022806D13F
:102080005C48006800F4003040B90120B2E75948CC
:10209000006800F4806008B90120ABE700F0DEF8CA
:1020A00006465548864209D95248806820F0F0001B
:1020B00040F080004F4988604FF080084D488068AC
:1020C00020F00300616808434A498860FFF712FC6A
:1020D000074608E0FFF70EFCC01B41F2883188423A
:1020E00001D9032086E74348806800F00C0061684E
:1020F000B0EB810FEED1207800F00200022820D151
:10210000207800F00400042805D13A48806840F4A3
:10211000E06038498860207800F00800082807D17E
:102120003448806820F4605040F4E06031498860B1
:102130003048806820F0F000A16808432D4988608D
:1021400008E0B8F1800F05D12A48806820F0F0003F
:10215000284988602648006800F00F00A84219D975
:102160002348006820F00F00284321490860FFF74A
:10217000C1FB074608E0FFF7BDFBC01B41F28831F9
:10218000884201D9032035E71948006800F00F00A4
:10219000A842F0D1207800F00400042807D11548A7
:1021A000806820F4E060E168084312498860207884
:1021B00000F00800082808D10E48806820F460501C
:1021C000216940EAC1000B49886000F047F80949DD
:1021D0008968C1F30311094A515C01F01F01C8402D
:1021E0000749086007480068FFF7A6FB02E7000000
:1021F000002002400010024000B4C4049E690008A0
:10220000580000205000002001480068704700007E
:102210005800002000B5FFF7F7FF05498968C1F3B2
:102220000221044A515C01F01F01C84000BD0000BA
:1022300000100240AE69000800B5FFF7E5FF054950
:102240008968C1F3C221044A515C01F01F01C840F2
:1022500000BD000000100240AE69000870B5224DBC
:10226000AD6805F00C05042D01D120483AE01E4D63
:10227000AD6805F00C05082D01D11D4832E01A4D5E
:10228000AD6805F00C050C2D2BD1174DED6805F050
:102290000304154DED68C5F303156A1C022C0CD020
:1022A000032C09D1124DB5FBF2F50F4EF668C6F3BB
:1022B000062605FB06F10AE000BF0C4DB5FBF2F562
:1022C000094EF668C6F3062605FB06F100BF00BFFF
:1022D000054DED68C5F341656D1C6B00B1FBF3F076
:1022E00000E0002070BD0000001002400024F40057
:1022F00000127A002DE9F843044614B90120BDE824
:10230000F883207800F00100002865D0FC48806840
:1023100000F00C07FA48C06800F003060C2F01D14A
:10232000032E01D0082F0AD1F548006800F40030D0
:10233000002851D0606800284ED10120DFE700BF9F
:102340006068B0F5803F06D1ED48006840F4803009
:10235000EB4908601AE06068B0F5A02F0BD1E8489F
:10236000006840F48020E64908600846006840F4B0
:10237000803008600AE0E248006820F48030E049DC
:1023800008600846006820F48020086000BF60688C
:1023900088B1FFF7AFFA054606E0FFF7ABFA401B3E
:1023A000642801D90320AAE7D548006800F400306A
:1023B0000028F2D010E0FFF79DFA054606E0FFF78F
:1023C00099FA401B642801D9032098E7CC4800689B
:1023D00000F400300028F2D1207800F0020002283A
:1023E00060D1C748806800F00C07C548C06800F09D
:1023F00003060C2F01D1022E01D0042F18D1C048A2
:10240000006800F4806018B1E06808B9012076E740
:10241000BB48406820F0FE40217C40EA0160B8499A
:102420004860B8480068FFF787FA18B3012066E7EC
:10243000E06800B3B248006840F48070B0490860BA
:10244000FFF758FA054606E0FFF754FA401B02284A
:1024500001D9032053E7AA48006800F480600028EF
:10246000F2D0A748406820F0FE40217C40EA01609D
:10247000A349486016E0A248006820F48070A04993
:102480000860FFF737FA054606E0FFF733FA401B0E
:10249000022801D9032032E79948006800F48060DF
:1024A0000028F2D1207800F00800082836D16069B1
:1024B000D0B193489430006840F001009049C1F8D1
:1024C0009400FFF717FA054606E0FFF713FA401BE2
:1024D000022801D9032012E789489430006800F0EF
:1024E00002000028F1D019E085489430006820F0FF
:1024F00001008349C1F89400FFF7FCF9054606E0A6
:10250000FFF7F8F9401B022801D90320F7E67C48C1
:102510009430006800F002000028F1D1207800F02B
:102520000400042872D14FF000087548806D012125
:1025300021EA107078B100BF7148806D40F0805082
:102540006F4988650846806D00F08050009000BF9C
:1025500000BF4FF001086C48006800F48070B0B90B
:102560006948006840F4807067490860FFF7C2F965
:10257000054606E0FFF7BEF9401B022801D90320FB
:10258000BDE66148006800F480700028F2D000BF0A
:10259000A068012808D15A489030006840F0010036
:1025A0005749C1F8900021E0A06805280FD1544890
:1025B0009030006840F004005149C1F8900008468E
:1025C000D0F8900040F00100C1F890000EE04C48B7
:1025D0009030006820F001004949C1F89000084699
:1025E000D0F8900020F00400C1F8900000BFA0686F
:1025F000A8B1FFF77FF9054609E0FFF77BF9401B1B
:1026000041F28831884202D9032078E625E03C482F
:102610009030006800F002000028EED013E0FFF7D1
:1026200069F9054608E0FFF765F9401B41F288317A
:10263000884201D9032062E631489030006800F0FA
:1026400002000028EFD1B8F1010F05D12C48806DB0
:1026500020F080502A49886500BF207800F02000D3
:10266000202836D1A069D0B125489830006840F0C4
:1026700001002349C1F89800FFF73CF9054606E040
:10268000FFF738F9401B022801D9032037E61C4820
:102690009830006800F002000028F1D019E01848D6
:1026A0009830006820F001001549C1F89800FFF744
:1026B00021F9054606E0FFF71DF9401B022801D964
:1026C00003201CE60E489830006800F00200002845
:1026D000F1D1E069002860D00948806800F00C0062
:1026E0000C287AD0E069022858D10548006820F00B
:1026F000807003490860FFF7FDF805460DE0000013
:10270000001002405000002000700040FFF7F2F877
:10271000401B022801D90320F1E54A48006800F077
:1027200000700028F2D1D4E90810401E41EA0011DF
:10273000A06A41EA0021208E0122C2EB500041EA4A
:1027400040513420005DC2EB500041EA40612C2032
:10275000005D41EAC0603B49C9683B4A11400843FB
:102760003849C8600846006840F080700860084634
:10277000C06840F08070C860FFF7BCF8054606E00E
:10278000FFF7B8F8401B022801D90320B7E52D4810
:10279000006800F000700028F2D051E0294800687D
:1027A00020F0807027490860FFF7A4F8054606E08E
:1027B000FFF7A0F8401B022801D903209FE521481C
:1027C000006800F000700028F2D11E48C0681F4960
:1027D00008401C49C86033E0FFE7E069012800D1E8
:1027E0008DE51848C66806F00301206A814225D1AC
:1027F00006F0F001606A401EB1EB001F1ED106F426
:10280000FE41A06AB1EB002F18D106F078412C20D0
:10281000005DB1EBC06F11D106F4C001208E012222
:10282000C2EB5000B1EB405F08D106F0C06134202C
:10283000005DC2EB5000B1EB406F01D001205EE5BE
:1028400000205CE5001002400C809F01FCFFEEFEC2
:102850007047014691F85D0070470000F8B50446E6
:102860002068466820688568C5F3801048B905F07F
:10287000010030B1C6F3801018B12046E16C8847E2
:10288000F8BDC5F3400030B1C6F3C01018B1204602
:10289000216D8847F4E7C5F3401030B9C5F38010C7
:1028A00018B9C5F3002000287CD0C6F340100028DA
:1028B0007DD0C5F38010F0B194F85D0003280ED0F0
:1028C000206E40F00400206600BF002000902068C9
:1028D000C068009020688068009000BF0BE000BFD7
:1028E000002000902068C0680090206880680090F8
:1028F00000BF00BFC4E7C5F3401088B1206E40F0B0
:102900000100206600BF00200090206880680090D1
:102910002068006820F040002168086000BF00BF08
:10292000C5F3002058B1206E40F00800206600BFBB
:102930000020009020688068009000BF00BF206EDB
:1029400078B32068406820F0E000216848600120EA
:1029500084F85D0006F00200022802D006F00100B3
:1029600008B32068406820F0030021684860A06D2B
:1029700050B11048A16D8863A06DFEF7B4F818B18E
:10298000206E40F040002066606D50B10948616DD6
:102990008863606DFEF7A7F818B1206E40F0400024
:1029A000206603E003E02046FFF752FF68E700BF20
:1029B00066E70000F54A000870B504460CB901202E
:1029C00070BD606A38B96068B0F5827F00D105E0FB
:1029D0000021E16102E00021216161610021A16229
:1029E00094F85D0028B9002084F85C00204600F0CF
:1029F00061F8022084F85D002068006820F0400043
:102A000021680860E068B0F5E06F01D9002501E0B9
:102A10004FF48055E068B0F5706F05D0E068B0F510
:102A2000E06F01D00021A162A08800F482702189AA
:102A300001F404410843217C01F002010843217D97
:102A400001F001010843218B01F400710843217F4B
:102A500001F0380108432021095D01F0800108439D
:102A6000218D01F400510843216808600421A06908
:102A700001EA104094F8241001F01001084394F882
:102A8000341001F008010843A18901F47061084382
:102A900005F480510843216848602068C06920F42B
:102AA00000602168C86100202066012084F85D0074
:102AB000002085E710B586B00446142101A8FDF773
:102AC00072FC1B492068884230D100BF1948006E53
:102AD00040F48050174908660846006E00F48050A4
:102AE000009000BF00BF00BF0846C06C40F001006E
:102AF000C8640846C06C00F00100009000BF00BF31
:102B0000E020019002200290002003900490052014
:102B1000059001A94FF09040FEF700FE00221146FB
:102B20002320FEF76BFF2320FEF754FF06B010BDF5
:102B300000300140001002402DE9F8430446884669
:102B400016461D464FF0000994F85D00012802D09A
:102B50004FF00209C3E06068B0F5827F0DD1A06834
:102B600058B9042084F85D00334642464146204669
:102B7000009500F0B7F9BDE8F88300BF94F85C0059
:102B8000012801D10220F6E7012084F85C0000BF93
:102B9000FEF7B0FE0746B8F1000F00D016B94FF0AF
:102BA00001099CE0042084F85D0000202066C4F840
:102BB0004080A4F84460A4F84660A063A087E08742
:102BC000E0642065E068B0F5E06F06D920684068F1
:102BD00020F480502168486005E02068406840F497
:102BE000805021684860A068B0F5004F0BD1206884
:102BF000006820F04000216808602068006820F428
:102C00008040216808602068006800F0400040288B
:102C100005D02068006840F0400021680860E06846
:102C2000B0F5E06F25D81FE02068806800F0010053
:102C300060B12068007B216C0870206C401C20640F
:102C4000B4F84600401EA4F846000DE0FEF752FE20
:102C5000C01BA84201D3681C00B92DB94FF003096D
:102C6000012084F85D003AE0B4F846000028DBD18A
:102C700024E01FE02068806800F0010060B1206857
:102C8000C068216C0880206C801C2064B4F8460069
:102C9000401EA4F846000DE0FEF72CFEC01BA84223
:102CA00001D3681C00B92DB94FF00309012084F845
:102CB0005D0014E0B4F846000028DBD13A4629460E
:102CC000204601F022FF08B120202066206E10B1BE
:102CD0004FF0010902E0012084F85D0000BF00BF51
:102CE000002084F85C0000BF484644E72DE9F84F17
:102CF0000446884616461D464FF0000A00BF94F869
:102D00005C00012802D10220BDE8F88F012084F880
:102D10005C0000BFFEF7EEFD0746B14694F85D008B
:102D2000012802D04FF0020AD5E0B8F1000F00D020
:102D300016B94FF0010ACEE0032084F85D000020B0
:102D40002066C4F83880A687E6872064A4F844008B
:102D5000A4F846002065E064A068B0F5004F0BD1F0
:102D60002068006820F04000216808602068006842
:102D700040F48040216808602068006800F040004E
:102D8000402805D02068006840F0400021680860B5
:102D9000E068B0F5E06F32D9606810B1B9F1010FA9
:102DA00009D1A06B00882168C860A06B801CA0635B
:102DB000E08F401EE0871EE02068806800F002007F
:102DC00002280AD1A06B00882168C860A06B801C13
:102DD000A063E08F401EE0870DE0FEF78BFDC01B77
:102DE000A84201D3681C00B92DB94FF0030A012095
:102DF00084F85D006FE0E08F0028DDD14DE0606871
:102E000010B1B9F1010F17D1E08F01280AD9A06BD9
:102E100000882168C860A06B801CA063E08F801EC2
:102E2000E08709E0A06B007821680873A06B401C64
:102E3000A063E08F401EE0872CE02068806800F0EF
:102E40000200022818D1E08F01280AD9A06B00885F
:102E50002168C860A06B801CA063E08F801EE087A3
:102E600018E0A06B007821680873A06B401CA06379
:102E7000E08F401EE0870DE0FEF73CFDC01BA8423E
:102E800001D3681C00B92DB94FF0030A012084F862
:102E90005D0020E0E08F0028CFD13A462946204649
:102EA00001F074FE08B120202066A06850B900BF70
:102EB000002000902068C068009020688068009022
:102EC00000BF00BF206E10B14FF0010A02E00120E8
:102ED00084F85D0000BF00BF002084F85C0000BFE4
:102EE000504611E72DE9FF5F0446894692461D468C
:102EF0000E9E012001900020009000BF94F85C001D
:102F0000012803D1022004B0BDE8F09F012084F81D
:102F10005C0000BFFEF7EEFC074694F85D000290EF
:102F200060680390A846AB46029801280BD003982E
:102F3000B0F5827F04D1A06810B90298042802D0AD
:102F40000220009030E1B9F1000F03D0BAF1000F78
:102F500000D015B90120009026E194F85D00042806
:102F600002D0052084F85D0000202066C4F840A04F
:102F7000A4F84650A4F84450C4F83890E587A587D3
:102F8000E0642065E068B0F5E06F02D8BBF1010FA6
:102F900006D92068406820F480502168486005E028
:102FA0002068406840F480502168486020680068CC
:102FB00000F04000402805D02068006840F0400044
:102FC00021680860E068B0F5E06F51D9606810B121
:102FD000B8F1010F09D1A06B00882168C860A06B0F
:102FE000801CA063E08F401EE08739E02068806885
:102FF00000F00200022810D1E08F70B10198012882
:103000000BD1A06B00882168C860A06B801CA063F6
:10301000E08F401EE087002001902068806800F06B
:10302000010080B1B4F8460068B12068C068216C26
:103030000880206C801C2064B4F84600401EA4F870
:10304000460001200190FEF755FCC01BB04207D39B
:10305000701C28B103200090012084F85D00A3E0DB
:10306000E08F0028C2D1B4F846000028BED188E025
:10307000606810B1B8F1010F17D1E08F01280AD9AB
:10308000A06B00882168C860A06B801CA063E08FE3
:10309000801EE08709E0A06B007821680873A06BB0
:1030A000401CA063E08F401EE08763E020688068DA
:1030B00000F0020002281ED1E08FE0B10198012843
:1030C00019D1E08F01280AD9A06B00882168C86057
:1030D000A06B801CA063E08F801EE08709E0A06BDE
:1030E000007821680873A06B401CA063E08F401E2D
:1030F000E087002001902068806800F0010058B34C
:10310000B4F8460040B3B4F84600012816D9206848
:10311000C068216C0880206C801C2064B4F84600D4
:10312000801EA4F84600B4F84600012812D8206892
:10313000406840F48050216848600BE02068007BC4
:10314000216C0870206C401C2064B4F84600401EBE
:10315000A4F8460001200190FEF7CCFBC01BB04252
:1031600001D3701C00B92EB903200090012084F80F
:103170005D0019E0E08F002898D1B4F846000028DF
:1031800094D13A463146204601F000FD18B10120A5
:10319000009020202066206E10B10120009002E0F7
:1031A000012084F85D0000BF00BF002084F85C00AF
:1031B00000BF0098A7E670B504462546681EB0F12A
:1031C000807F01D301200FE0681E4FF0E0214861AD
:1031D0000F214FF0FF3002F071FC00204FF0E02192
:1031E000886107200861002070BD704770477047F4
:1031F000704770477047000030B502460B4600BF6D
:1032000092F83C00012801D1022030BD012082F853
:103210003C0000BF022082F83D0010684168106841
:103220008468234D1068A84207D0224D1068A84238
:1032300003D0214D1068A84203D121F470015868D1
:1032400001431E4801401868014310684160184D51
:103250001068A8421BD01068B0F1804F17D0184DED
:103260001068A84213D0174D1068A8420FD0164D11
:103270001068A8420BD00F4D1068A84207D0134D1C
:103280001068A84203D00C4D1068A84205D124F064
:1032900080049868044310688460012082F83D002F
:1032A00000BF002082F83C0000BF00BFADE7000077
:1032B000002C014000340140005001408FFFFFFD11
:1032C0000004004000080040000C004000400140A5
:1032D000704710B504460CB9012010BD94F83D00AC
:1032E00028B9002084F83C00204600F029F802208C
:1032F00084F83D00211D206801F0B0FD012084F814
:10330000480000BF84F83E0001213F2001554020C5
:10331000015541200155422001554320015500BF70
:1033200000BF012084F84400452001554620015586
:103330004720015500BF012084F83D000020CCE764
:1033400038B504460D492068884215D100BF0C48A5
:10335000006E40F400600A4908660846006E00F4FA
:103360000060009000BF00BF002211461920FEF748
:1033700045FB1920FEF72EFB38BD0000002C014054
:1033800000100240014691F83D00012801D00120C3
:103390007047022081F83D000868C06840F00100D5
:1033A0000B68D8601C4B086898421BD00868B0F1C5
:1033B000804F17D0194B0868984213D0184B0868F3
:1033C00098420FD0174B086898420BD0164B0868EC
:1033D000984207D0154B0868984203D0144B0868F0
:1033E000984210D108688068124B00EA0302062A4E
:1033F0000FD0B2F5803F0CD00868006840F00100A3
:103400000B68186005E00868006840F001000B6870
:1034100018600020BCE70000002C014000040040C0
:1034200000080040000C0040003401400040014012
:1034300000500140070001002DE9F04104460D460F
:10344000002700BF94F83C00012802D10220BDE80B
:10345000F081012084F83C0000BF022084F83D0088
:10346000206886684348064026F47F4620688660C8
:103470002868B0F5805F28D00CDC00F00F0100292F
:103480006BD10011082868D2DFE800F058595A5B68
:103490004E3A4420384A811A904256D00EDCB0F59C
:1034A000005F20D0B0F5801F4CD0B0F1101F4AD083
:1034B000A0F58010203800284FD145E0102945D0D4
:1034C000202944D0402948D142E048E0D5E9021300
:1034D0006A68206801F03AFD2068866846F0770641
:1034E000206886603BE0D5E902136A68206801F035
:1034F0002DFD2068806840F48040216888602EE0BF
:10350000EA686968206801F039FD5021206801F0FF
:1035100029FD24E0EA686968206801F042FD602125
:10352000206801F01FFD1AE0EA686968206801F070
:1035300025FD4021206801F015FD10E000BF00BF0F
:1035400000BF00BF00BF00BF00BF00BF00BF00BF83
:103550002968206801F006FD01E0012700BF00BFD7
:10356000012084F83D0000BF002084F83C0000BF2B
:1035700038466CE788FFCEFF30001000704770B50A
:1035800004462068C6682068056905F00200022824
:1035900019D106F00200022815D1401F21680861E8
:1035A000012020772068806900F0030018B12046D0
:1035B000FFF7E4FF05E0204600F0F1F8204600F0B8
:1035C000EFF80020207705F00400042819D106F058
:1035D0000400042815D1C043216808610220207727
:1035E0002068806900F4407018B12046FFF7C6FFDC
:1035F00005E0204600F0D3F8204600F0D1F8002086
:10360000207705F00800082819D106F008000828DE
:1036100015D1C04321680861042020772068C06963
:1036200000F0030018B12046FFF7A8FF05E0204690
:1036300000F0B5F8204600F0B3F80020207705F040
:103640001000102819D106F01000102815D1C04321
:1036500021680861082020772068C06900F4407064
:1036600018B12046FFF78AFF05E0204600F097F8E2
:10367000204600F095F80020207705F0010048B1C1
:1036800006F0010030B16FF00100216808612046AA
:1036900000F088F805F08000802804D005F4005080
:1036A000B0F5005F0AD106F08000802806D16FF4E3
:1036B0000250216808612046FFF798FD05F48070EC
:1036C000B0F5807F0AD106F08000802806D16FF423
:1036D0008070216808612046FFF787FD05F04000F3
:1036E000402809D106F04000402805D1C043216898
:1036F0000861204600F0AEF905F02000202809D12D
:1037000006F02000202805D1C0432168086120462A
:10371000FFF76DFD05F48010B0F5801F0BD106F4A6
:103720008010B0F5801F06D16FF480102168086109
:103730002046FFF75EFD05F40010B0F5001F0BD129
:1037400006F40010B0F5001F06D16FF400102168D8
:1037500008612046FFF74CFD05F48000B0F5800FAE
:103760000BD106F48000B0F5800F06D16FF4800015
:10377000216808612046FFF73DFD05F40000B0F523
:10378000000F0BD106F40000B0F5000F06D16FF466
:103790000000216808612046FFF79AFD70BD704760
:1037A000704700007CB5054600224FF400419B485D
:1037B000FEF79AF892209A4908704FF47A73012222
:1037C0009848FFF793FA00BF9648FFF742F803289E
:1037D000FAD04FF47A73012293499248FFF7ACF97B
:1037E00000BF9048FFF735F80428FAD000208F4931
:1037F000087017E04FF47A7301228B498948FFF76C
:103800009BF900BF8748FFF724F80428FAD08648C0
:1038100000788749854A1278885484480078401C8B
:1038200082490870814800780628E3DB0122D10331
:103830007A48FEF759F87E484078000200B27C4989
:103840000978084300EE100AB8EEC00A7948D0EDB6
:10385000000A20EE200A784880ED000A7448C078FB
:10386000000200B272498978084300EE100AB8EEEF
:10387000C00A7048D0ED000A20EE200A6E4880EDA4
:10388000010A6B484079000200B26949097908438E
:1038900000EE100AB8EEC00A6648D0ED000A20EE2D
:1038A000200A654880ED020A00224FF480415B48FF
:1038B000FEF71AF880205A4908704FF47A730122F3
:1038C0005848FFF713FA00BF5648FEF7C2FF032817
:1038D000FAD000205549087017E04FF47A7301229E
:1038E00051495048FFF728F900BF4E48FEF7B1FF95
:1038F0000428FAD04C4800784D494C4A1278885434
:103900004A480078401C494908704848007808280F
:10391000E3DB012291034148FDF7E6FF44480078CC
:103920000F2838D14248C078000200B24049897857
:10393000084300EE100AB8EEC00A4048D0ED000A75
:1039400020EE200A3E4880ED000A39484079000206
:1039500000B237490979084300EE100AB8EEC00AF0
:103960003648D0ED000A20EE200A354880ED010AE5
:103970002F48C079000200B22D498979084300EE32
:10398000100AB8EEC00A2D48D0ED000A20EE200A39
:103990002B4880ED020A284890ED023AF0EE432AC7
:1039A00090ED013AB0EE432A90ED003AF0EE431A62
:1039B000234890ED023AB0EE431A90ED013AF0EE52
:1039C000430A90ED003AB0EE430A1E4800F012FEA2
:1039D0001D4B1A1F111F1B4802F08EFA0020009089
:1039E0000190FF208DF800001748083890ED000A7C
:1039F000DFED160A20EE200ABDEEC00A10EE104AD6
:103A0000200C8DF80100200A8DF80200E0B28DF83C
:103A1000030069460E4802F03DFB7CBD00080048EB
:103A200021000020E80100202200002018000020D2
:103A300019000020000000205C000020040000208D
:103A400068000020080000207C00002000401C4688
:103A5000840100207047014600BF91F884000128CE
:103A600001D102207047012081F8840000BF24208A
:103A7000C1F88800086802680868006820F0010042
:103A80000B68186022F00052002048660868026047
:103A90002020C1F8880000BF002081F8840000BF0A
:103AA00000BFDFE77047704770B504460D4600BFA2
:103AB00094F88400012801D1022070BD012084F80F
:103AC000840000BF2420C4F88800206806682068AD
:103AD000006820F00100216808602068806820F0FC
:103AE0006060284321688860204601F06FFA2068F2
:103AF00006602020C4F8880000BF002084F88400FD
:103B000000BF00BFD9E770B504460D4600BF94F86A
:103B10008400012801D1022070BD012084F88400B6
:103B200000BF2420C4F88800206806682068006868
:103B300020F00100216808602068806820F0604063
:103B4000284321688860204601F040FA206806601A
:103B50002020C4F8880000BF002084F8840000BF43
:103B600000BFD9E770477047704700002DE9F04764
:103B700004462068C569206806682068876840F6A2
:103B80000F0005EA0009B9F1000F0FD105F0200080
:103B900060B106F0200010B907F0805030B1606FBE
:103BA00010B12046616F8847BDE8F087B9F1000F7A
:103BB0007ED0DF48384018B9DE4830400028F7D0C2
:103BC00005F0010058B106F4807040B10120216871
:103BD0000862D4F8900040F00100C4F8900005F0AD
:103BE000020058B107F0010040B1022021680862CC
:103BF000D4F8900040F00400C4F8900005F00400F0
:103C000058B107F0010040B1042021680862D4F8DF
:103C1000900040F00200C4F8900005F0080070B178
:103C200006F0200010B9C248384040B10820216891
:103C30000862D4F8900040F00800C4F8900005F441
:103C4000006060B106F0806048B14FF40060216808
:103C50000862D4F8900040F02000C4F89000D4F836
:103C60009000002852D005F0200050B106F020004E
:103C700010B907F0805020B1606F10B12046616F1D
:103C80008847D4F890A02068806800F04000402861
:103C900002D00AF0280070B3204601F0A9FB20688A
:103CA000806800F04000402826D100BF00BF00E03F
:103CB0002DE02168083151E8001F21F04000216803
:103CC000083141E80002002AF1D100BFD4F8800099
:103CD00068B19948D4F880108863D4F88000FCF764
:103CE00002FF98B1D4F88000816B88470EE020462F
:103CF000FFF73AFF0AE003E02046FFF735FF05E053
:103D00002046FFF731FF0020C4F890004CE7E06E3A
:103D1000012865D105F01000002861D006F01000E0
:103D20000028FAD01020216808622068806800F01E
:103D3000400040287AD1D4F88000006840681FFA1B
:103D400080F8B8F1000F5CD0B4F85C00404558DD55
:103D5000A4F85E80D4F880000068006800F02000BD
:103D6000E8BB00BF00BF216851E8001F21F480704C
:103D7000226842E800010029F5D100BF00BF00BF62
:103D80002168083151E8001F21F001002168083145
:103D900041E80002002AF3D100BF00BF00BF216844
:103DA000083151E8001F21F040002168083141E846
:103DB0000002002AF3D100BF2020C4F88C000020AC
:103DC000E06600BF00BF216851E8001F21F010002D
:103DD000226842E800010029F5D100BF01E004E0BB
:103DE00068E0D4F88000FCF743FE02202067B4F8B6
:103DF0005C00B4F85E20801A81B22046FFF752FEC4
:103E000012E0B4F85C0040450ED1D4F880000068A0
:103E1000006800F02000202806D102202067B4F8B6
:103E20005C102046FFF73EFEBEE6FFE734F85C0F6D
:103E30006188401A1FFA80F860885C3CC8B3B8F10A
:103E4000000F36D000BF00BF216851E8001F21F4E9
:103E50009070226842E800010029F5D100BF00BF40
:103E600000BF2168083151E8001F314AD24301EAFE
:103E700002002168083141E80002002AF1D100BFA8
:103E80002020C4F88C000020E066606700BF00BFFF
:103E9000216851E8001F21F01000226842E800016B
:103EA0000029F5D100BF0220206741462046FFF7D8
:103EB000F9FD79E605F4801050B107F4800038B1BF
:103EC0004FF48010216808622046FFF74CFE6BE635
:103ED00005F0800058B106F0800010B907F400002A
:103EE00028B1A06F10B12046A16F88475CE605F0AD
:103EF000400030B106F0400018B1204601F0AEFAA3
:103F000052E605F4000030B106F0804018B12046BA
:103F1000FFF728FE48E605F0807030B106F000405B
:103F200018B12046FFF7BFFD3EE600BF3CE60000AB
:103F300001000010200100040752000810B50446DB
:103F40000CB9012010BDA06900B100E000BFD4F899
:103F5000880028B9002084F88400204600F02AF860
:103F60002420C4F888002068006820F0010021683F
:103F70000860A06A10B1204601F054F8204601F014
:103F8000BDFA012800D1DDE72068406820F49040A8
:103F9000216848602068806820F02A0021688860D5
:103FA0002068006840F0010021680860204601F0A8
:103FB000B5F8C7E710B59CB00446142117A8FCF764
:103FC000F2F9542102A8FCF7EEF92F492068884243
:103FD00057D1042002900020059002A8FDF7F6FDBD
:103FE00008B1FCF781FC00BF2848806D40F48020B8
:103FF000264988650846806D00F48020019000BF46
:1040000000BF00BF0846C06C40F00200C86408460C
:10401000C06C00F00200019000BF00BF4FF4406090
:10402000179002201890002019901A9007201B90DA
:1040300017A91748FDF772FB1648174908601C209E
:104040004860002114488160C16080210161002125
:10405000416181612021C16109020162FCF70CFE0E
:1040600008B1FCF741FC00BF0B48C4F88000846233
:1040700000BF002211462720FDF7C0FC2720FDF7D6
:10408000A9FC1CB010BD0000004800400010024018
:1040900000040048080002402C03002070B50446CC
:1040A0000D461646D4F88C00202821D105B10EB952
:1040B000012070BD0020E0660E492068884211D0C2
:1040C0002068406800F4000060B100BF00BF2168B4
:1040D00051E8001F41F08060226842E80001002999
:1040E000F5D100BF32462946204601F0EBFBE0E760
:1040F0000220DEE70080004070477047704700BF35
:10410000FEE7000010B500224FF400414148FDF7E2
:10411000EBFB7E20404908704FF47A7301223F4840
:10412000FEF7E4FD00BF3D48FEF793FB0328FAD0FD
:10413000B620394908704FF47A7301223748FEF7E8
:10414000D5FD00BF3548FEF784FB0328FAD00120D7
:10415000FCF75CFE0122D1032E48FDF7C5FB0022CF
:104160004FF400412B48FDF7BFFB7D202A49087022
:10417000C30001222948FEF7B9FD00BF2748FEF71A
:1041800068FB0328FAD00420234908704FF47A739F
:1041900001222248FEF7AAFD00BF2048FEF759FB86
:1041A0000328FAD00120FCF731FE0122D10319487F
:1041B000FDF79AFB00224FF480411648FDF794FB6F
:1041C0001420154908704FF47A7301221348FEF742
:1041D0008DFD00BF1148FEF73CFB0328FAD0B62046
:1041E0000D4908704FF47A7301220C48FEF77EFDEA
:1041F00000BF0A48FEF72DFB0328FAD01E20FCF76B
:1042000005FE012291030348FDF76EFB0448FFF70A
:10421000B9F810BD0008004821000020E801002086
:104220004C0200209FED140A80ED030A9FED130A53
:1042300080ED040AB2EE090A80ED050A9FED100A2E
:1042400080ED120A9FED0F0A80ED130A9FED0E0A12
:1042500080ED000A9FED0D0A80ED010AB2EE0E0A14
:1042600080ED020A9FED060A80ED140A9FED050A13
:1042700080ED150A704700000000344295BF5633A8
:1042800000401C4600401CC600005C42BD3706359D
:1042900010B50848FCF708FA0648FFF7C3FF9FED82
:1042A000060A04481C3880ED050A9FED040A80EDDB
:1042B000040A10BDC80000200000344300000000C4
:1042C00008B500BF1148806C40F004000F498864B5
:1042D0000846806C00F00400009000BF00BF00BFE3
:1042E0000846806C40F0010088640846806C00F04D
:1042F0000100009000BF00BF002211460B20FDF717
:104300007DFB0B20FDF766FB08BD0000001002409E
:1043100000B587B01C481D49086000204860002196
:104320001A488160C1600174417481741121416136
:10433000012181610621C1610321016201214162E4
:104340008162C1620163002141638163C163FCF743
:10435000E9FF08B1FCF7C8FA0020019002900220A2
:1043600003900120049000200590069001A90748C1
:10437000FCF726FE0548FDF7B4F9002201210348A9
:10438000FCF758FD07B000BD00640040200100208C
:1043900000B587B01C481D49086000204860002116
:1043A0001A488160C16001744174817411214161B6
:1043B000012181610321C161062101620121416264
:1043C0008162C1620163002141638163C163FCF7C3
:1043D000A9FF08B1FCF788FA0020019002900220A2
:1043E00003900120049000200590069001A9074841
:1043F000FCF7E6FD0548FDF774F9002201210348AA
:10440000FCF718FD07B000BD0068004084010020E3
:1044100000B587B0142102A8FBF7C5FF00BF2448F0
:10442000C06C40F004002249C8640846C06C00F02B
:104430000400019000BF00BF00BF0846C06C40F000
:104440002000C8640846C06C00F02000019000BF46
:1044500000BF00BF0846C06C40F00100C8640846B9
:10446000C06C00F00100019000BF00BF00BF084613
:10447000C06C40F00200C8640846C06C00F0020046
:10448000019000BF00BF01224FF440410948FDF7F1
:104490002BFA4FF44040029001200390049000203A
:1044A000059002A90348FDF739F907B000BD0000E7
:1044B000001002400008004810B51148114908607A
:1044C0004FF48270486000210E4881604FF4E06133
:1044D000C1600221016101214161490281613821EC
:1044E000C16100210162416281620721C162002134
:1044F00001634163FEF760FA08B1FCF7F5F910BDFE
:1045000000300140E801002000B587B00020039092
:10451000049005900690009001900290154816496D
:104520000860A920486000211348816040F2E7310B
:10453000C1600021016141618161FEF7CAFE08B1DD
:10454000FCF7D2F94FF48050039003A90A48FEF714
:1045500073FF08B1FCF7C8F90020009001900290A9
:1045600069460548FEF748FE08B1FCF7BDF907B0FB
:1045700000BD0000002C01404C02002010B51A487C
:104580001A4908601A4848604FF480511748816002
:104590000021C1604FF4806101610C214161002163
:1045A0008161C16101624162022010498862C103D8
:1045B0000E480163FFF7C2FC08B1FCF795F9002132
:1045C0000A48FFF7A0FA08B1FCF78EF90021074866
:1045D000FFF76AFA08B1FCF787F90448FFF73BFADE
:1045E00008B1FCF781F910BD004800409802002096
:1045F000A086010000B52DED068B0246B0EE403AD4
:10460000F0EE603AB0EE414AF0EE615AF0EE424A06
:10461000B0EE625AF5EEC05AF1EE10FA09D1F5EE9D
:10462000C04AF1EE10FA04D1B5EEC05AF1EE10FA1C
:104630007DD065EEA50A44EEA40A45EE050AB0EE6B
:10464000600A01F015FEF0EE402A25EEA20AF0EE17
:10465000405A24EEA20AF0EE404A25EE220AB0EEBD
:10466000405AD84890ED000AD748D0ED000A20EE15
:10467000200AD648D0ED000AD54890ED001AF0EE99
:10468000407A40EEC17AD14890ED000ACD48D0ED95
:10469000000A20EE200ACE48D0ED000ACA4890ED6C
:1046A000001AB0EE408A00EE818AC848D0ED000AB8
:1046B00090ED001AB6EE000A10EE810AC248D0ED65
:1046C000000A90ED001AF0EE408A40EE818A24EE56
:1046D000A80AB0EE409A05EE489A25EE270AF0EEB9
:1046E000409A45EEE89A25EE880AB0EE40AA04EE1C
:1046F000E7AAB84890ED000AB5EEC00AF1EE10FA4C
:1047000040DD90ED000A60EE090AB34890ED000A22
:104710009FEDB21A00EE810A80ED000AAD4890EDDF
:10472000000A60EE290AAE4890ED000A00E051E070
:104730009FEDAA1A00EE810A80ED000AA54890EDCF
:10474000000A60EE0A0AA74890ED000A9FEDA31A3E
:1047500000EE810A80ED000A9F4890ED000A33EEDA
:10476000000AB0EE403A9E4890ED000A33EE800A0F
:10477000F0EE403A9B4890ED000A34EE000AB0EEAD
:10478000404A0EE09FED980A934880ED000A9FEDA5
:10479000960A934880ED000A9FED930A914880EDB8
:1047A000000A9248D0ED000AB0EE430A00EE890AF2
:1047B000B0EE403AD0ED000AB0EE630A00EEA90A6E
:1047C000F0EE403AD0ED000AB0EE440A00EE8A0A5C
:1047D000B0EE404A9FED860A23EE000AB0EE403A62
:1047E0009FED830A23EE800AF0EE403A9FED800AA7
:1047F00024EE000AB0EE404A744890ED000AB0EE94
:10480000406A704890ED000AF0EE406A704890ED02
:10481000000AB0EE407AB1EE660A20EE030A07EE17
:10482000630A6948D0ED000A00EEC40A6748D0ED7B
:10483000000A30EE200A80ED000A26EE030A07EE99
:10484000040A6148D0ED000A00EEE30A5D48D0EDAD
:10485000000A30EE200A80ED000A26EE230A06EE5A
:10486000C40A5948D0ED000A00EE830A5848D0ED3A
:10487000000A30EE200A80ED000A26EE040A06EE59
:10488000A30A07EE430A5048D0ED000A30EE200A92
:1048900080ED000A4D48D0ED000A90ED001A60EE60
:1048A000810A484890ED001AD0ED001A41EE210A25
:1048B000474890ED001AD0ED001A41EE210A424817
:1048C00090ED001AD0ED001A41EE210AB0EE600A18
:1048D00001F0CEFCF0EE402A3C4890ED000A20EEBC
:1048E000220A80ED000A374890ED000A20EE220AE5
:1048F00080ED000A364890ED000A20EE220A80ED95
:10490000000A314890ED000A20EE220A80ED000AEC
:104910009FED370A23EE000AB0EE403A9FED340ACD
:1049200023EE800AF0EE403A9FED310A24EE000AB1
:10493000B0EE404A92ED000AB0EE406A92ED010AF4
:10494000F0EE406A92ED020AB0EE407AB1EE660AED
:1049500020EE030A07EE630AD2ED030A00EEC40A52
:10496000D2ED000A30EE200A82ED000A26EE030A9C
:1049700007EE040AD2ED030A00EEE30AD2ED010AC3
:1049800030EE200A82ED010A26EE230A06EEC40A62
:10499000D2ED030A00EE830AD2ED020A30EE200ABD
:1049A00082ED020A26EE040A06EEA30A07EE430A87
:1049B000D2ED030A30EE200A82ED030ABDEC068B2D
:1049C00000BD000030000020380000202C00002036
:1049D00034000020280000203C0000206F12833AA1
:1049E00040000020440000200000000024000020BF
:1049F0006F12033A00BFFEE790ED020A80ED100A45
:104A000090ED000A80ED120A90ED050A80ED0F0A84
:104A100090ED040A80ED110A704700BFFEE7704771
:104A2000D0ED080A90ED091A70EEC10AB0EE600AE6
:104A3000DFED0F0AB4EEE00AF1EE10FA07DBD0ED7D
:104A4000090A9FED0C1A70EE810AC0ED090ADFED2C
:104A50000A0AB4EEE00AF1EE10FA07D8D0ED090A1E
:104A60009FED041A70EEC10AC0ED090A70470000FC
:104A7000000034430000B443000034C370B5164D49
:104A8000ED6805F00304144DED68C5F303156B1CC8
:104A9000022C0CD0032C09D1104DB5FBF3F50E4EB2
:104AA000F668C6F3062605FB06F10AE000BF0C4DCA
:104AB000B5FBF3F5084EF668C6F3062605FB06F1CE
:104AC00000BF00BF044DED68C5F341656D1C6A0071
:104AD000B1FBF2F070BD00000010024000127A003D
:104AE0000024F40010B50248FDF7B8FE10BD000028
:104AF000E801002070B50546AC6A0020A4F8460025
:104B0000E0872046FDF7A4FE70BDF8B504460E46CA
:104B100015466068B0F5827F0DD1A068B0F5004FF2
:104B200003D0A068B0F5806F05D12068006820F040
:104B3000400021680860334600228021204600950D
:104B400000F0D2F828B1206E40F02000206603204B
:104B5000F8BD6068B0F5827F16D1A068B0F5004F4F
:104B600003D0A068B0F5806F0ED1334600224FF419
:104B7000C0612046009500F03BF828B1206E40F05F
:104B8000200020660320E3E70020E1E7F8B50446B3
:104B90000E461546334600224FF4C051204600957C
:104BA00000F026F828B1206E40F020002066032097
:104BB000F8BD3346002280212046009500F094F88D
:104BC00028B1206E40F0200020660320F0E7334635
:104BD00000224FF4C0612046009500F009F828B18A
:104BE000206E40F0200020660320E1E70020DFE790
:104BF0002DE9FC5F04460D4616461F46DDF8309051
:104C000000200090FCF776FEA0EB0900A7EB00085F
:104C1000FCF770FE8246206800F10C0B31480068FA
:104C2000C0EBC00000EB8000000D00FB08F001901D
:104C300050E0B5F5C06F05D126B99BF80000009093
:104C40009DF80000781C002844D0FCF753FEA0EB30
:104C50000A00404502D2B8F1000F34D12068406804
:104C600020F0E000216848606068B0F5827F0DD1D7
:104C7000A068B0F5004F03D0A068B0F5806F05D1F3
:104C80002068006820F0400021680860A06AB0F544
:104C9000005F0DD100BF2068006820F4005021683B
:104CA00008602068006840F400502168086000BF78
:104CB000012084F85D0000BF002084F85C0000BF84
:104CC0000320BDE8FC9F019808B94FF00008019847
:104CD000401E0190206880682840B042A9D1002081
:104CE000EFE70000580000202DE9F84F04460D467C
:104CF00090461E46DDF82890FCF7FCFDA0EB09006D
:104D0000371AFCF7F7FD82462C480068C0F3CB3019
:104D10007843009045E0701C002842D0FCF7EAFD83
:104D2000A0EB0A00B84200D2A7BB2068406820F080
:104D3000E000216848606068B0F5827F0DD1A0680E
:104D4000B0F5004F03D0A068B0F5806F05D12068A2
:104D5000006820F0400021680860A06AB0F5005F9C
:104D60000DD100BF2068006820F400502168086061
:104D70002068006840F400502168086000BF0120EE
:104D800084F85D0000BF002084F85C0000BF0320B1
:104D9000BDE8F88FFFE7009800B900270098401E93
:104DA0000090206880682840A84201D1012000E0DE
:104DB00000204045AFD10020EAE700005800002065
:104DC000704710B5FCF79CFD10BD00B593B03821BD
:104DD00005A8FBF7E8FA14216846FBF7E4FA00207F
:104DE000FCF75EFE02200590C0010890402009906B
:104DF00002200C9002210D9104210E9155210F915A
:104E0000022110911191129105A8FDF773FA08B1D2
:104E1000FBF76AFD0F200090032001900020029014
:104E20000390049004216846FDF7DCF808B1FBF715
:104E30005BFD13B000BD00000348006840F4700043
:104E4000014908607047000088ED00E010B5024895
:104E5000FEF795FB10BD00004C02002010B5026863
:104E6000314B984211D0B0F1804F0ED02F4B984269
:104E70000BD02F4B984208D02E4B984205D02E4B8A
:104E8000984202D02D4B984203D122F070024B6819
:104E90001A43254B98421AD0B0F1804F17D0234BBC
:104EA000984214D0224B984211D0224B98420ED0F7
:104EB000214B98420BD0224B984208D0214B98426C
:104EC00005D0214B984202D01C4B984203D122F4CA
:104ED0004072CB681A4322F080034C6943EA040213
:104EE00002608B68C3620B6883620F4B98420ED0DE
:104EF000114B98420BD0124B984208D0114B98425C
:104F000005D0114B984202D00C4B984201D10B694D
:104F1000036301234361036903F001031BB10369C8
:104F200023F00103036110BD002C01400004004088
:104F300000080040000C00400034014000500140D7
:104F400000400140004401400048014030B50C469B
:104F5000816821F47F4142EA03252543294381608A
:104F600030BD00000A468168034B194042F0070338
:104F700019438160704700008FFFCFFF30B50B46AB
:104F80001446026A056A25F001050562816921F06F
:104F9000F00141EA041122F00A021A43816102621F
:104FA00030BD30B50B461446026A056A25F010057F
:104FB0000562816921F4704141EA043122F0A002C6
:104FC00042EA03128161026230BD000070B5456E95
:104FD0002DB90125A0F86A50A0F868501CE00823FC
:104FE00008240568AD68C5F342610568AD686A0FBD
:104FF0000A4DAD5C15FB04F5094EB65C95FBF6F564
:10500000A0F86A50054D6D5C15FB03F5044E765C07
:1050100095FBF6F5A0F8685070BD00008E69000899
:105020009669000890F8281001F00801082907D1B6
:105030000168496821F40041826B114302685160A4
:1050400090F8281001F0010139B10168496821F494
:105050000031C26A11430268516090F8281001F0D3
:105060000201022907D10168496821F48031026BED
:1050700011430268516090F8281001F004010429DE
:1050800007D10168496821F48021426B114302680D
:10509000516090F8281001F01001102907D1016823
:1050A000896821F48051C26B11430268916090F8C5
:1050B000281001F02001202907D10168896821F416
:1050C0000051026C11430268916090F8281001F0C1
:1050D0004001402913D10168496821F48011426CD4
:1050E000114302685160416CB1F5801F07D101681E
:1050F000496821F4C001826C11430268516090F844
:10510000281001F08001802907D10168496821F445
:105110000021C26C114302685160704738B50446E3
:105120000020C4F89000FCF7E5FB05462068006805
:1051300000F00800082821D16FF07E402B460022A5
:105140004FF400110090204600F020FCB0B100BFE9
:1051500000BF216851E8001F21F08000226842E86A
:1051600000010029F5D100BF2020C4F8880000BF4D
:10517000002084F8840000BF032038BD2068006848
:1051800000F00400042830D16FF07E402B4600224E
:105190004FF480010090204600F0F8FB28B300BFD8
:1051A00000BF216851E8001F21F49070226842E896
:1051B00000010029F5D100BF00BF00BF2168083100
:1051C00051E8001F21F001002168083141E8000288
:1051D000002AF3D100BF2020C4F88C0000BF0020BB
:1051E00084F8840000BF0320C7E72020C4F88800AB
:1051F000C4F88C000020E066206700BF84F88400BB
:1052000000BF00BFB9E770B50546AC6A0020A4F83E
:105210005E00A4F856002046FEF7A6FC70BD2DE9FE
:10522000F0410546AC6AD4F88860D4F88C702068E8
:10523000806800F08000802807D1212E05D1002051
:10524000A4F85600204600F021F92068806800F09C
:105250004000402807D1222F05D10020A4F85E008D
:10526000204600F0C5F8D4F8900040F01000C4F8D3
:1052700090002046FEF778FCBDE8F0817CB504463E
:105280001E48844239D154F8800F0068006820F02D
:10529000010021680968086054F8800900684068C6
:1052A000C0F1120516491748FBF790FA012000E0FB
:1052B000401CB0F57A7FFBDD6946124800F001FF23
:1052C0006946114800F0E6FE012000E0401C0F494D
:1052D0008842FBDD0E490B4800F00EFF122054F807
:1052E000801F0968486020680068006840F001007D
:1052F00054F880190968086000BF7CBD980200203E
:10530000800000209200002084010020A08601007F
:10531000AC00002070B50546AC6A2868006800F053
:105320002000E0BB0020A4F85E0000BF00BF2168A1
:1053300051E8001F21F48070226842E80001002932
:10534000F5D100BF00BF00BF2168083151E8001F40
:1053500021F001002168083141E80002002AF3D160
:1053600000BF00BF00BF2168083151E8001F21F0D5
:1053700040002168083141E80002002AF3D100BF53
:105380002020C4F88C00E06E01280ED100BF00BFC1
:10539000216851E8001F21F01000226800E004E0BD
:1053A00042E800010029F3D100BF00202067E06E31
:1053B000012805D1B4F85C102046FEF773FB02E02B
:1053C0002046FEF799FE70BD70B50546AC6A012017
:1053D0002067E06E012806D1B4F85C004108204641
:1053E000FEF760FB02E02046FEF787FE70BD00007E
:1053F00000BF00BF026852E8002F22F490710368DA
:1054000043E80012002AF5D100BF00BF00BF0268C8
:10541000083252E8002F104B02EA030102680832FA
:1054200042E80013002BF2D100BFC16E01290CD15C
:1054300000BF00BF026852E8002F22F0100103688D
:1054400043E80012002AF5D100BF2021C0F88C10DB
:105450000021C16641677047FEFFFFEF10B50446AB
:1054600000BF00BF216851E8001F21F04000226802
:1054700042E800010029F5D100BF2020C4F88800CF
:105480000020A0672046FEF739FE10BD00BF00BF18
:10549000026852E8002F22F0C001036843E80012BE
:1054A000002AF5D100BF00BF00BF0268083252E8F1
:1054B000002F22F400010268083242E80013002B9A
:1054C000F3D100BF2021C0F88810704710B510201C
:1054D00008490968086207480068006840F0100041
:1054E000044909680860122203490248FEF7D6FD04
:1054F00010BD000098020020800000202DE9FE4F22
:10550000044600200290E4492068884200D100E06F
:1055100000BF2169A068084361690843E16940EA66
:10552000010820680068DD49084040EA0800216859
:1055300008602068406820F44050E1680843216812
:105540004860D4F81880D4492068884202D0206A84
:1055500040EA080820688068D149084040EA08000D
:10556000216888602068C06A20F00F00616A0843E3
:105570002168C86200BFCB492068884216D1CA485A
:10558000006800F0030030B1012808D0022804D0E0
:10559000032808D105E0012507E0022505E00425E0
:1055A00003E0082501E0102500BF8DE0BF49206819
:1055B000884216D1BC48006800F00C0030B10428C5
:1055C00008D0082804D00C2808D105E0002507E001
:1055D000022505E0042503E0082501E0102500BFB1
:1055E00072E0B3492068884216D1AF48006800F0E5
:1055F000300030B1102808D0202804D0302808D13D
:1056000005E0002507E0022505E0042503E0082564
:1056100001E0102500BF57E0A6492068884216D156
:10562000A148006800F0C00030B1402808D08028B0
:1056300004D0C02808D105E0002507E0022505E0D8
:10564000042503E0082501E0102500BF3CE09A494D
:105650002068884219D19448006800F4407048B12D
:10566000B0F5807F0AD0B0F5007F05D0B0F5407F5F
:1056700008D105E0002507E0022505E0042503E048
:10568000082501E0102500BF1EE0834920688842FC
:1056900019D18548006800F4406048B1B0F5806FCA
:1056A0000AD0B0F5006F05D0B0F5406F08D105E025
:1056B000002507E0022505E0042503E0082501E0B8
:1056C000102500BF00E0102500BF73492068884204
:1056D0005BD135B1022D08D0042D08D0082D0DD195
:1056E00009E0FCF797FD06460CE0744E0AE0FCF773
:1056F000B5FD064606E04FF4004603E00026012013
:10570000029000BF00BF002E10D06D49606A31F8D2
:105710001000B6FBF0F9606800EB4000484503D884
:1057200060680003484502D201200290A8E0644965
:10573000606A31F810C06246002330461946FAF715
:10574000BBFD4FF4807C0022A0FB0C3B01FB0CB1A5
:1057500000FB02106168490859185041CDE900105A
:10576000D4F804C06246002308460199FAF7A4FD64
:105770000746B7F5407F05D3B7F5801F02D22068F2
:10578000C7607DE0012002907AE0E069B0F5004F4B
:105790003FD1092D17D2DFE805F005090D160F16C8
:1057A00016161300FCF736FD064610E0FCF744FD24
:1057B00006460CE0414E0AE0FCF750FD064606E0C6
:1057C0004FF4004603E000260120029000BF00BF16
:1057D00086B33B49606A31F81000B6FBF0F0400038
:1057E000616800EB5100B0FBF1F7102F0ED3B7F555
:1057F000803F0BD24FF6F07007EA000AC7F3420071
:105800004AEA000A2068C0F80CA039E001200290A2
:1058100036E0092D18D2DFE805F005090E1710173C
:1058200017171400FCF7F6FC064611E0FCF704FD20
:1058300006460DE024E0214E0AE0FCF70FFD064687
:1058400006E04FF4004603E000260120029000BF6E
:1058500000BFAEB11A49606A31F81000B6FBF0F033
:10586000616800EB5100B0FBF1F7102F06D3B7F5DC
:10587000803F03D2B8B22168C86001E001200290E5
:105880000120A4F86A00A4F8680000206067A067FF
:105890000298BDE8FE8F000000800040F369FFCF52
:1058A000FFF4FF110038014088100240004400401E
:1058B00000480040004C0040005000400024F4002C
:1058C0007669000870B504460E46154644F8586FD0
:1058D000A5800020A06322206063A06A583CF8B134
:1058E0002748241DE16FC8622648E16F08632648F7
:1058F000E16F48630020E16F886354F8043C03F1D2
:105900002401626DE06F241F2B46FBF71DFA38B1AE
:105910001020C4F890002020C4F88C00012070BD35
:10592000206960B100BF00BF216851E8001F41F449
:105930008070226842E800010029F5D100BF00BF55
:1059400000BF2168083151E8001F41F001002168C3
:10595000083141E80002002AF3D100BF00BF00BFB8
:105960002168083151E8001F41F0400021680831EA
:1059700041E80002002AF3D100BF0020CFE7000079
:1059800015530008C95300081F5200082DE9F041C3
:1059900004460D4617469846069E41E0701C0028B6
:1059A0003ED0FBF7A7FFA0EB0800B04200D816B925
:1059B0000320BDE8F0812068006800F0040070B3A7
:1059C000802D2DD0402D2BD02068C069C0F3C000A1
:1059D00078B10820216808622046FFF709FD0820F9
:1059E000C4F8900000BF002084F8840000BF0120AC
:1059F000DFE72068C069C0F3C02080B14FF40060C9
:105A0000216808622046FFF7F3FC2020C4F89000CC
:105A100000BF002084F8840000BF0320C9E7FFE72F
:105A20002068C0692840A84201D1012000E0002080
:105A3000B842B3D00020BCE710B51048FEF796F886
:105A40000E480068C069C0F30010B0B110200B49C7
:105A50000968086209480068006820F010000749DA
:105A6000096808600548FFF709FC044800680068F9
:105A700040F0100001490968086010BD980200203C
:105A800000BFFEE74100080218BF04200A0E18BF3D
:105A900040F001004FF07F4232EA010108BF40F0C0
:105AA0000200012808BF0520704700000248006876
:105AB000C0F30220704700000CED00E010B5002894
:105AC00004DB0A07130E054A135406E00A07140EF6
:105AD000034A00F00F031B1FD45410BD00E400E084
