:020000040800F2
:10000000780B00207902000809260008C7220008A2
:10001000452500086F040008712E0008000000004C
:100020000000000000000000000000000D26000895
:10003000CD060008000000000B2600080F2600086F
:10004000930200089302000893020008930200083C
:10005000930200089302000893020008930200082C
:10006000930200089302000893020008710500083B
:10007000930200089302000893020008930200080C
:1000800093020008930200089302000893020008FC
:1000900093020008930200089302000893020008EC
:1000A00093020008930200089302000893020008DC
:1000B00093020008930200089302000893020008CC
:1000C00093020008930200089302000893020008BC
:1000D000930200089302000893020008392E0008DA
:1000E000930200089302000893020008930200089C
:1000F000930200089302000893020008930200088C
:10010000930200089302000893020008930200087B
:10011000930200089302000893020008930200086B
:10012000930200089302000893020008930200085B
:10013000930200089302000893020008930200084B
:1001400093020008930200089302000800000000D8
:10015000000000000000000000000000000000009F
:1001600000000000000000000000000093020008F2
:10017000930200089302000893020008930200080B
:1001800093020008930200089302000893020008FB
:100190009302000800000000D5060008E1060008F0
:1001A00093020008930200089302000893020008DB
:1001B00093020008930200089302000893020008CB
:1001C00093020008930200089302000893020008BB
:1001D000930200089302000800F002F800F03CF8D7
:1001E0000AA090E8000C82448344AAF10107DA4592
:1001F00001D100F031F8AFF2090EBAE80F0013F0A8
:10020000010F18BFFB1A43F001031847DC2E000052
:10021000FC2E0000103A24BF78C878C1FAD85207E3
:1002200024BF30C830C144BF04680C607047000070
:100230000023002400250026103A28BF78C1FBD8EF
:10024000520728BF30C148BF0B6070471FB502F08E
:100250001DFF1FBD10B510BD00F0CFF81146FFF710
:10026000F5FF02F0EFFE00F0EDF803B4FFF7F2FF48
:1002700003BC00F0F5F80000094880470948004732
:10028000FEE7FEE7FEE7FEE7FEE7FEE7FEE7FEE746
:10029000FEE7FEE704480549054A064B70470000A3
:1002A00081260008D901000878050020780B00207D
:1002B000780700207807002053EA020C00F06980DC
:1002C0002DE9F04B4FF00006002B1FBFB3FA83F56A
:1002D00003FA05F424FA05F65E4012BF1643B2FA9B
:1002E00082F502FA05F4C5F120051EBF22FA05FCCD
:1002F00044EA0C04203556EA044C4FEA144418BF73
:10030000641C4FF000084FF00009904271EB030CA1
:1003100039D3002919BFB1FA81F701FA07F6B0FA0B
:1003200080F700FA07F6C7F120071EBF20FA07FC86
:1003300046EA0C062037B6FBF4FCA7EB0507103F96
:1003400007F01F0BCBF120060CFA0BFB2CFA06F67C
:1003500044BFB3460026202FA4BF5E464FF0000BDB
:100360005BEA060C08BF4FF0010B19EB0B09ABFB66
:10037000027C48EB0608C01B06FB02CC0BFB03CC3F
:1003800071EB0C01C1E70B46024641464846BDE809
:10039000F08B13B54FF000004FF00001AFF3008079
:1003A000BDE81C4070474FF0000200B5134694466C
:1003B0009646203922BFA0E80C50A0E80C50B1F1BD
:1003C0002001BFF4F7AF090728BFA0E80C5048BFD1
:1003D0000CC05DF804EB890028BF40F8042B08BF6F
:1003E000704748BF20F8022B11F0804F18BF00F86B
:1003F000012B7047704770477047754600F02CF826
:10040000AE4605006946534620F00700854618B001
:1004100020B5FFF73FFFBDE820404FF000064FF04A
:1004200000074FF000084FF0000B21F00701AC4629
:10043000ACE8C009ACE8C009ACE8C009ACE8C00948
:100440008D46704710B50446AFF300802046BDE8E6
:100450001040FFF70ABF0000004870471405002055
:1004600001491820ABBEFEE7260002007047FEE7F8
:10047000D0ED0E0AC0ED0F0A90ED0A0A90ED0B1AAE
:1004800030EE410A80ED0E0A30EE601AD0ED110A0E
:10049000D0ED141AF4EEE10AF1EE10FA08DDB5EE33
:1004A000C00AF1EE10FA03DD70EEC00AC0ED110AC9
:1004B000D0ED151AF4EEE10AF1EE10FA08D2B5EE1D
:1004C000C00AF1EE10FA03D270EEC00AC0ED110AB4
:1004D00070EE800A114AC0ED110AD0ED001A21EE2B
:1004E000800AD0ED011A01EEA00AD0ED020A00EE5A
:1004F000810A10EE101A80ED070A914203DD9FED8C
:10050000080A80ED070A10EE101A064A914203D934
:100510009FED050A80ED070A704700000050C346B2
:100520000050C3460050C3C60050C3C69FED0E0A1C
:10053000DFED0E0A80ED090A80ED0B0A80ED0C0A52
:1005400080ED0D0A80ED0E0A80ED0F0AC0ED080A5D
:1005500080ED0A0A80ED100A80ED110A80ED060A8E
:1005600080ED070A70470000000000000000B44260
:10057000014800F05EB90000B40400200D49026893
:100580008A4201D20C4901E00B492031D2B2142336
:10059000083AB2FBF3F2436C02F01F0223F00303AC
:1005A0001944816404498031C1640121914001658D
:1005B0007047000008040240000802400179074A21
:1005C00002EB81024265054A4432491E826501F010
:1005D0001F0201219140C16570470000FC080240E4
:1005E00030B5D0E913456560446D14B1D0E91645C6
:1005F000656090F8444004F01F050124AC40056C90
:100600006C60046863608368102B036803D0996092
:100610000068C26030BD9A600068C16030BD70B5CE
:10062000002952D00A88C2F30A0202804B788C78E3
:10063000DB0843EA4413C3F30A0444808B78CD7883
:100640009B0943EA85030D79A2F5806243EA85237D
:10065000C3F30A0585800B794E795B0843EAC6131C
:10066000C3F30A03C3804E79A4F58064B609067209
:100670004E79A5F58065C6F301164672CE8886814F
:100680000E89C6814E8906820E7B46824E7B86820B
:10069000CE89C682098AA3F58063C1F30A0141812C
:1006A0000280448085800021521DC3800A2A00D820
:1006B0000180641D0A2C00D841806D1D0A2D00D8D0
:1006C00081805B1D0A2B00D8C18070BD704772B657
:1006D000FEE70000014800F0E9B90000BC0300207B
:1006E000014800F0E3B90000BC030020F0B5D1E9F7
:1006F00001650C692C430D68C6B145F080452C435B
:10070000D1E90665354391F820704E69406D46EA9F
:10071000076635438E8903EBC30300EBC30045EA4C
:100720000645E0E802450023084C0AE044EA854417
:10073000E6E7D618D55CD6F801601B1D45EA06250C
:1007400020C0CD68655D9D42F3D8F0BD96300008AD
:1007500010B590F8253000210122022B03D004218E
:10076000C163012122E003681C6824F00E041C60B0
:10077000836C1C6824F480741C6003681C6824F07B
:1007800001041C6090F84430046C03F01F0302FA6B
:1007900003F36360D0E913345C60436D33B11C68CC
:1007A00024F480741C60D0E916345C6080F8252045
:1007B000002280F82420084610BD70B590F825204E
:1007C000002401212346022A07D00422C26380F8B4
:1007D000251080F82430012429E00268156825F0EE
:1007E0000E0515600268156825F001051560826C1C
:1007F000156825F48075156090F84420056C02F0AA
:100800001F0201FA02F26A60D0E913255560426DB9
:1008100032B1156825F480751560D0E9162555604C
:1008200080F8251080F82430816B01B1884720467C
:1008300070BDF0B4016C0C6801680D6890F844203C
:1008400002F01F06042202FA06F3234211D06B07BE
:100850000FD50B689B0603D40B6823F004030B60D1
:1008600090F8441001F01F018A40016C4A60016B4E
:100870001DE0022303FA06F727424FF0000C4FF069
:10088000010218D0AF0716D50C68A40605D40C6871
:1008900024F00A040C6080F8252090F8441001F040
:1008A0001F018B40016C4B6080F824C0C16A002995
:1008B0001AD0F0BC08470823B340234214D02B07BA
:1008C00012D50B6823F00E030B6090F84410036CF4
:1008D00001F01F0102FA01F15960C26380F825207E
:1008E00080F824C0416BE2E7F0BC704770B50400AB
:1008F0000CD02B4A21681420914209D2294A0A447B
:10090000B2FBF0F08000606427480AE0012070BD6F
:10091000234A52420A44B2FBF0F08000606420484F
:1009200008382064022084F825000A6847F6F07031
:100930008243D4E902031843D4E904352B43184316
:10094000A3691843E3691843236A184310430860F6
:100950002046FFF713FEA0680025B0F5804F00D1B8
:100960006560A16C20790860D4E91301416060687A
:10097000401E032808D82046FFF720FE606D056062
:10098000D4E91601416002E06565A565E565E563AA
:10099000012084F8250084F82450002070BD000058
:1009A00008040240F8FFFDBF0000024070B5044695
:1009B00090F82400002501280CD0012084F82400A0
:1009C00094F825600020012E06D084F8240002252A
:1009D000284670BD022070BD022684F82560E063C1
:1009E0002068066826F0010606602046FFF7F8FD3D
:1009F000206B00282068016802D041F00E0106E05B
:100A000021F0040101602068016841F00A010160E1
:100A1000A06C0168C90303D5016841F480710160CD
:100A2000606D18B1016841F480710160206801684F
:100A300041F001010160CBE770B5044600F0AAFB6C
:100A40000546601C02D004484068044400F0A2FB44
:100A5000401BA042FAD370BD0400002070B50446CC
:100A600090F85C00022803D0206E40F0080007E0F8
:100A70002068D0F8C4309B0205D5206E40F4007089
:100A80002066012070BDD0F8C400C0F301452B469C
:100A90002046FFF72BFE21680120A840C1F8CC00BA
:100AA000A065002070BD7047704770472DE9F05F6A
:100AB00004460068016D426D01F4E05102EA01084C
:100AC000016D426D01F0070102EA0109016D426DFD
:100AD00001F0380102EA010A016D476D01F471016C
:100AE0000F40016D426D01F46021456D02EA010B7A
:100AF000016DCE43710607D4E943490604D4402171
:100B000001652046FFF7D1FFF0050ED4E843C0058C
:100B10000BD42068D0F8D820D0F8E01011404FF462
:100B200080720265204600F00DFAB8F1000005D091
:100B3000216808654146204600F006FAB9F1000038
:100B400005D0216808654946204600F0F7F9BAF15A
:100B5000000005D0216808655146204600F0EFF9F5
:100B6000B00509D4E843800506D421684FF400702D
:100B70000865204600F0E9F930060DD4E843000688
:100B80000AD42068D0F8D420D0F8DC10114080229C
:100B90000265204600F0D7F9B00409D4E843800488
:100BA00006D421684FF400500865204600F0C9F9CA
:100BB000300409D4E843000406D421684FF400400F
:100BC0000865204600F0BCF970040AD4E8434004EC
:100BD00007D421684FF480400865206E40F0800003
:100BE0002066BBF1000005D0216808655946204603
:100BF000FFF75AFF27B120680765206E384320664B
:100C0000206E002802D02046FFF74DFFBDE8F09F80
:100C10002DE9F041040006D0DFF8F48194F85C007F
:100C2000002518B107E00120BDE8F08184F85D508F
:100C3000204600F0F9F82068816921F010018161F7
:100C400000F0A8FA0646032705E000BF00F0A2FA6C
:100C5000801B0A2811D8206880690007F6D4206814
:100C6000816941F00101816100F094FA06460BE0D0
:100C700000F090FA801B0A2806D9206E40F001008F
:100C8000206684F85C70CEE720688069C007EFD0EA
:100C90002068816941F0020181612168414502D1EA
:100CA0005C4960680860207C01282068816937D031
:100CB00041F040018161607C01282068816932D067
:100CC00021F480418161A07C0128206881692DD0B8
:100CD00041F48051816120688169A26821F44071EA
:100CE000114381612068816921F0A401816120683C
:100CF000016921F010010161E068012819D010B3E9
:100D000002281BD02068816941F080018161206840
:100D1000016941F010010161E06803280ED012E082
:100D200021F04001C6E741F48041CBE721F4805136
:100D3000D0E72068816941F0040103E020688169FF
:100D400041F020018161207EE26940066FF0FF01E1
:100D500001EB0222A0F100701043226AA38A521E06
:100D600010430A0202EB034318432368D861A068CA
:100D7000B0F5407F10D1D4E90A0301EB0321401EF6
:100D80000843216B131303EB01110843A18C02EB01
:100D9000014108432168C860206850F8C01FE26B19
:100DA000114301601D4A21681B48914200D11C4833
:100DB0001C4A914201D100F5D460206451F8802F83
:100DC000A38E22F4F81242EA03420A6000F1700195
:100DD0006164216851F8802F94F8383022F07062F5
:100DE00042EA03620A6000F1B001A164D831E16413
:100DF000D831216518316165D83100E020C08842C2
:100E0000FCD3A5652566012084F85C0000200BE773
:100E1000006400400065004000A4004000680040FD
:100E200050A70040006C00402DE9F0419CB0044602
:100E3000142115A8FFF7B7FA54216846FFF7B3FA53
:100E4000394B21689A1400255003384E0227384C3C
:100E50004FF0090899422BD10E900092684600F09D
:100E600097FA08B1FFF733FC3068401C3060012866
:100E700007D1A06D40F00070A065A06D00F000707B
:100E80001A90E06C40F00100E064E06CCDE916756A
:100E900000F001001A904FF4C050CDE91858159099
:100EA00015A94FF0904000F051F81CB0BDE8F0815A
:100EB000204B9942F9D10E900092684600F068FAF2
:100EC00008B1FFF704FC3068401C3060012807D1EE
:100ED000A06D40F00070A065A06D00F000701A9049
:100EE000E06C40F00200E064E06CCDE9167500F0C3
:100EF00002001A904FF44050CDE91858159015A9EA
:100F00000D4800F023F800221146562000F0A8F901
:100F1000562000F097F900221146572000F0A0F962
:100F2000572000F08FF9C0E7006400400000002067
:100F300000100240006800400004004870477047FD
:100F40007047704770477047704770472DE9F04F02
:100F5000DFF82092002301260324A9F1040B85B0B9
:100F60000F2709F1040AABF1040EFAE006FA03F5C3
:100F70002A407CD091F804C00CF0030CBCF1010FA6
:100F800002D0BCF1020F26D1D0F808C0CDF800C0C5
:100F90004FEA430C04FA0CF8CDF810C0DDF800C09D
:100FA0002CEA080CCDF800C0D1F80C80DDF810C098
:100FB00008FA0CF8DDF800C048EA0C08C0F8088010
:100FC000D0F804C02CEA050C0D79C5F300159D403E
:100FD00045EA0C0545600D79ED43AD070ED0C568B7
:100FE0004FEA430804FA08FC25EA0C05D1F808C0CA
:100FF0000CFA08FC4CEA050CC0F80CC00D7905F0A1
:101000000305022D16D1DD0800EB850CCDF808C0D4
:10101000DCF820805D074FEAD56C07FA0CF528EA6A
:1010200005080D6905FA0CF5DDF808C045EA080564
:10103000CCF8205005684FEA430CCDF808C004FAFC
:101040000CFC25EA0C0591F804C00CF00308DDF84F
:1010500008C008FA0CF848EA0508C0F800804D6896
:1010600015F4403F7CD0444DD5F860C000E077E0F7
:101070004CF0010CC5F860C02D6E23F0030C05F098
:10108000010500953D4D65440295AD684FEA837CAE
:101090004FEA1C7807FA08FC25EA0C05B0F1904FDE
:1010A00006D0DFF8DCC0604505D14FF0010C20E030
:1010B0004FF0000C1DE0DFF8CCC0604502D14FF0CE
:1010C000020C16E0DFF8C0C0604502D14FF0030CFF
:1010D0000FE0DFF8B8C0604502D14FF0040C08E023
:1010E000DFF8ACC0604502D14FF0050C01E04FF0D5
:1010F000060C0CFA08FC4CEA050C029DC5F808C069
:10110000D9F80050CC46D1F8048095435FEAC8284E
:1011100000D51543CCF80050DAF80050D446D1F889
:10112000048095435FEA882800D51543CCF8005029
:10113000DBF80050DC46D1F8048095435FEA88383C
:1011400000D51543CCF80050DEF80050F446D1F835
:10115000048095435FEAC83800D51543CCF80050A9
:101160005B1C0A6832FA03F57FF400AF05B0BDE8F6
:10117000F08F000008040140001002400000014010
:101180000004004800080048000C00480010004817
:1011900000140048014880687047000004000020E7
:1011A0000248816842681144816070470400002051
:1011B00010B50024032000F073F80F2000F008F8A9
:1011C00008B1012401E000F025F8204610BD000020
:1011D00070B50E4E05460024706898B14FF47A71D0
:1011E000B1FBF0F00A490968B1FBF0F000F09AFD9C
:1011F00040B9102D06D200222946501E00F030F8CA
:10120000356000E00124204670BD0000040000208D
:10121000100000200A4882B0016E41F00101016611
:10122000016E01F001010091816D41F080518165F5
:10123000806D00F08050009002B000F0A1B8000076
:1012400000100240002809DB00F01F02012191403C
:101250004009800000F1E020C0F800117047000054
:10126000F0B40E4B1B680C46C3F30223C3F1070511
:10127000042D00D90425191D072901D2002300E0FF
:10128000DB1E012606FA05F1491E214099409E40C9
:10129000761E16403143F0BC01F0EBBD0CED00E0D2
:1012A000064900F0070208684FF6FF03184040EABD
:1012B0000220034A10430860704700000CED00E074
:1012C0000000FA052B492C4B0A6832214A432B496E
:1012D00040B1B0F5007F086829D020F4C06040F428
:1012E00080602CE00868C0F34120022804D051F847
:1012F000800F20F4807022E0D1F8800020F480700C
:10130000C1F88000086820F4C06040F400700860F4
:10131000B2FBF3F0401C00E0401E4A69520501D5C3
:101320000028F9D1486940050AD503207047C0F369
:101330004120022806D051F8800F40F480700860E8
:1013400000207047D1F8800040F48070C1F8800020
:10135000086820F4C06040F400700860B2FBF3F04D
:10136000401C00E0401E4A695205DBD50028F9D137
:10137000D8E700001000002040420F00007000403D
:101380000248816841F480418160704700700040EC
:101390002DE9F843044600680026BB4D00035ED5E6
:1013A000A86D0027C00008D4A86D40F08050A86543
:1013B000A86D012700F080500090DFF8D092D9F896
:1013C000001041F48071C9F80010FFF7E3FE804679
:1013D00006E000BFFFF7DEFEA0EB080002282BD8D6
:1013E000D9F80000C005F5D5D5F8900010F440708C
:1013F00014D0216D814211D0D5F89000D5F890100D
:1014000020F4407041F48031C5F89010D5F8901068
:1014100021F48031C5F89010C5F89000C00711D0B4
:10142000FFF7B8FE804641F2883907E0FFF7B2FEC9
:10143000A0EB0801494501D903260BE0D5F890003F
:101440008007F3D5D5F89000216D20F44070084353
:10145000C5F890001FB1A86D20F08050A8652078D5
:10146000C00707D0D5F88800616820F00300084362
:10147000C5F888002078800707D5D5F88800A168CE
:1014800020F00C000843C5F888002078400707D5F5
:10149000D5F88800E16820F030000843C5F88800DE
:1014A0002078000707D5D5F88800216920F0C00012
:1014B0000843C5F888002078C00607D5D5F888000D
:1014C000616920F440700843C5F8880020788006E0
:1014D00007D5D5F88800A16920F440600843C5F815
:1014E00088002078400607D5D5F88800E16920F407
:1014F00040500843C5F888002078000607D5D5F885
:101500008800216A20F440400843C5F888002088FC
:10151000C00507D5D5F88800616A20F4403008433B
:10152000C5F888002068800307D5D5F89C00A16A1B
:1015300020F003000843C5F89C002088800507D5EB
:10154000D5F88800E16A20F440200843C5F88800F7
:10155000208840050FD5D5F88800216B20F4401075
:101560000843C5F88800206BB0F5801F03D1E868F8
:1015700040F48010E860208800050FD5D5F8880079
:10158000616B20F440000843C5F88800606BB0F53B
:10159000800F03D1E86840F48010E8602088C00420
:1015A0000FD5D5F88800A16B20F040700843C5F82E
:1015B0008800A06BB0F1807F03D1E86840F4801010
:1015C000E86020884FF0006180040ED5D5F88800CF
:1015D000E26B20F040601043C5F88800E06B884261
:1015E00003D1E86840F48010E860208840040ED5FC
:1015F000D5F88800226C20F040601043C5F88800C0
:10160000206C884203D1E86840F48010E8602088AC
:1016100000040FD5D5F88800616C20F040500843D5
:10162000C5F88800606CB0F1805F03D1E86840F4D1
:101630008030E8602068C0030FD5D5F88800A16C21
:1016400020F040400843C5F88800A06CB0F1804FFE
:1016500003D1E86840F48030E860206840030FD58B
:10166000D5F89C00E16C20F440100843C5F89C00BC
:10167000E06CB0F5001F03D1E86840F48010E8602A
:101680003046BDE8F88300000010024000700040C2
:101690002DE9F0470E4605004FF0000725D0DFF892
:1016A000AC81D8F8000000F00F00B0420CD2D8F89E
:1016B000001021F00F013143C8F80010D8F80000E5
:1016C00000F00F00B04210D12968614CC80741F208
:1016D000883A5AD06868DFF87C91032808D002283D
:1016E00020682DD0400500282CDB0120BDE8F087C4
:1016F00020688001F9D5E06800F00302E068C0F3DB
:101700000310401C032A19D0534A00BFB2FBF0F06B
:10171000E268C2F306225043E268C2F34162521CFF
:101720005200B0FBF2F0484517D9A06810F0F00F56
:101730000CD0880711D5A86840B10EE0474AE5E70C
:101740008003D0E700F0B6F8484506D9A06820F03D
:10175000F00040F08000A0608027A068696820F059
:1017600003000843A060FFF715FD814606E000BFB7
:10177000FFF710FDA0EB090151453AD8A068696850
:1017800000F00C00B0EB810FF2D12868810714D56E
:10179000400703D5A06840F4E060A0602878000707
:1017A00005D5A06820F4605040F4E060A060A06817
:1017B000A96820F0F000084304E0802F03D1A0685E
:1017C00020F0F000A060D8F80010404601F00F01B2
:1017D000B14216D9016821F00F0131430160FFF7D2
:1017E000D9FC074607E000BFFFF7D4FCC11B5145F9
:1017F00001D903207AE7D8F8000000F00F00B042CA
:10180000F2D12878400705D5A068E96820F4E060A7
:101810000843A0602878000706D5A068296920F44D
:10182000605040EAC100A06000F044F8A1680C4A92
:10183000C1F30311515C01F01F01C8400949086060
:1018400009480068BDE8F047FFF7C2BC002002402D
:101850000010024000B4C4040024F40000127A0016
:10186000CE30000810000020040000200548064982
:1018700000688968054AC1F30221515C01F01F012B
:10188000C84070471000002000100240DE30000801
:101890000548064900688968054AC1F3C221515CC0
:1018A00001F01F01C84070471000002000100240E6
:1018B000DE300008184910B58868C0F38102174867
:1018C000012A0BD08A684310C2F38102022A06D093
:1018D0008A68C2F38102032A03D0002010BD184693
:1018E00010BDCA6802F00304CA68C2F30312521C96
:1018F000032C02D0B0FBF2F001E0B3FBF2F0CA68B7
:10190000C968C2F306225043C1F34161491C490032
:10191000B0FBF1F010BD0000001002400024F40004
:101920002DE9F84304007AD02078F84DC00747D05D
:10193000A868E96800F00C0001F003010C2802D04F
:10194000082817D001E0032914D06068B0F5803F63
:1019500017D0B0F5A02F286817D020F48030286069
:10196000286820F4802028606068E0B1FFF712FC4E
:10197000064614E02868800322D560680028D2D08B
:101980001EE0286840F48030EDE740F480202860B5
:10199000F7E700BFFFF7FEFB801B642870D82868BC
:1019A0008003F7D50CE0FFF7F5FB064605E000BF26
:1019B000FFF7F0FB801B6428F0D828688003F7D479
:1019C000207880074CD5A868E96800F00C0001F089
:1019D00003010C2802D004280DD001E002290AD00E
:1019E000E068002828682BD040F480702860FFF75A
:1019F000D1FB064619E02868400502D5E0680028BA
:101A000091D06868217C20F0FE4040EA0160686067
:101A1000BF480068FFF7DCFB002800D120E072E13E
:101A2000FFF7B8FB801B0228B8D828684005F7D517
:101A30006868217C20F0FE4040EA016068600FE0A9
:101A400020F480702860FFF7A5FB064605E000BF84
:101A5000FFF7A0FB801B0228A0D828684005F7D418
:101A60002078000729D560690028D5F8940013D0A4
:101A700040F00100C5F89400FFF78CFB064606E035
:101A800090E000BFFFF786FB801B022886D8D5F8C0
:101A900094008007F6D510E020F00100C5F894000E
:101AA000FFF778FB064604E0FFF774FB801B022873
:101AB00078D8D5F894008007F6D42078400761D50F
:101AC000A86D0026C00008D4A86D40F08050A8651D
:101AD000A86D012600F0805000908E480168C9056D
:101AE00011D40168804641F480710160FFF752FB18
:101AF000074604E0FFF74EFBC01B022852D8D8F877
:101B00000000C005F6D5A068012815D00528D5F835
:101B1000900016D020F00100C5F89000D5F8900094
:101B200020F00400C5F89000A06841F28838B8B1F0
:101B3000FFF730FB07460EE0D5F8900040F00100BB
:101B4000F0E740F00400C5F89000F5E7FFF722FB4E
:101B5000C11B414526D8D5F890008007F6D50CE08A
:101B6000FFF718FB074604E0FFF714FBC11B4145D4
:101B700018D8D5F890008007F6D41EB1A86D20F0D3
:101B80008050A8652078800629D5A0690028D5F85E
:101B9000980013D040F00100C5F89800FFF7FAFA5A
:101BA000064606E075E000BFFFF7F4FA801B022846
:101BB0006FD8D5F898008007F6D510E020F0010026
:101BC000C5F89800FFF7E6FA064604E0FFF7E2FAE8
:101BD000801B02285DD8D5F898008007F6D4E0690C
:101BE000F0B3A968C1F3810103295DD002282868F8
:101BF00020F08070286003D0FFF7CCFA04464BE059
:101C0000FFF7C8FA064604E0FFF7C4FA801B022873
:101C10003FD828688001F7D4F4E908016FF00F027B
:101C200002EB01110843218A5204490802EB415199
:101C3000A26841EA02210843217D4FF07E42490813
:101C400002EB41610843217B40EAC160E968324A06
:101C500011400843E860286840F08070286000E088
:101C60005EE0E86840F08070E860FFF793FA0446B1
:101C700005E000BFFFF78EFA001B022809D828688C
:101C80008001F7D54CE000BFFFF784FA001B022863
:101C900002D90320BDE8F88328688001F4D4E868FD
:101CA0001E490840E8603BE00128F3D0E868226A5A
:101CB00000F00301914226D1616A00F0F0020901AF
:101CC000103991421FD1A26A00F4FE41B1EB022FFC
:101CD00019D194F82C2000F07841B1EBC26F12D1E9
:101CE000218E00F4C00249084905A1F50011914276
:101CF00009D194F8341000F0C06049084906A1F1F8
:101D0000007181420CD00120C4E7000000100240A5
:101D100004000020007000400C809F01FCFFEEFEDC
:101D20000020B7E710B5401EB0F1807F01D301203D
:101D300010BD4FF0E02460610F21601701F099F8A9
:101D40000020A06107202061002010BD90F88410C1
:101D5000012918D0012180F884102421C0F88810AE
:101D600001680A680B6823F001030B6022F0005140
:101D700000224266036819602021C0F8881080F8AC
:101D8000842010467047022070477047704770B536
:101D9000044690F8840001281DD0012084F88400B6
:101DA0002420C4F8880020680568026822F0010237
:101DB00002602068826822F060620A4382602046E6
:101DC00000F066FC206805602020C4F88800002030
:101DD00084F8840070BD022070BD70B5044690F890
:101DE000840001281DD0012084F884002420C4F838
:101DF000880020680568026822F0010202602068FD
:101E0000826822F060420A438260204600F040FC73
:101E1000206805602020C4F88800002084F8840031
:101E200070BD022070BD7047704770472DE9F041CA
:101E300003680446D86919689A6840F60F05284275
:101E40004FF000054FF002060AD187067ED501F05B
:101E5000200702F0805C57EA0C0777D0616F42E1FF
:101E6000B64FDFF8DCC2174001EA0C0C57EA0C0C45
:101E70006CD05FEAC07C0CD05FEAC15C09D54FF042
:101E8000010CC3F820C0D4F8903043F00103C4F82B
:101E90009030830709D5D30707D023681E62D4F892
:101EA000903043F00403C4F8903043070AD5D307B9
:101EB00008D0266804233362D4F8903043F002033C
:101EC000C4F8903003070CD501F020033B4308D041
:101ED000266808233362D4F8903043F00803C4F82E
:101EE000903003050BD54B0109D526684FF40063EC
:101EF0003362D4F8903043F02003C4F89030D4F823
:101F00009030002B3DD0800609D501F0200002F072
:101F10008051084303D0616F09B120468847D4F847
:101F2000900021688968490602D410F0280F2AD051
:101F3000204600F043FD2068806840061ED52068DA
:101F4000083050E8001F21F0400100E021E040E8A7
:101F50000012002AF3D1D4F8800078B17949816366
:101F6000D4F88000FEF729FC00280AD0D4F88000BD
:101F7000816B00E02046BDE8F04108472046FFF7AE
:101F800054FFBDE8F0812046FFF74FFFC4F89050A2
:101F9000F7E7D4F86CC02027BCF1010F7ED15FEACF
:101FA000C06C7BD55FEAC16C78D5102018622068C0
:101FB0008068400651D5D4F880100A685068000443
:101FC000000C3ED0B4F85C3083423AD9A4F85E00ED
:101FD0000868006880062CD4216851E8000F20F4BE
:101FE000807041E80002002AF6D12068083050E8ED
:101FF000001F21F0010140E80012002AF5D12068FD
:10200000083050E8001F21F0400140E80012002A8B
:10201000F5D1C4F88C70E566216851E8000F20F016
:10202000100041E80002002AF6D1D4F88000FEF743
:102030008FFB2667B4F85C00B4F85E10401A81B2DA
:1020400007E0B4F85C1081429BD11068800698D5F7
:1020500026672046FFF799FE93E7B4F85C00B4F8D2
:102060005E10401A81B2B4F85E00002889D00029C1
:1020700087D0226852E8000F20F4907042E80003F5
:10208000002BF6D12D4BDB432068083050E8002FA1
:102090001A4040E8002CBCF1000F00E00EE0F3D144
:1020A000C4F88C70E5666567206850E8002F22F060
:1020B000100240E80023002BF6D1C9E7C60209D57B
:1020C000560207D54FF4801018622046BDE8F04153
:1020D000FFF7AABE03060AD501F0800302F400024E
:1020E000134304D0A16F00297FF444AF49E74206AF
:1020F00011D54A060FD52046016851E8002F22F07D
:10210000400241E80023002BF6D1C0F888708567B3
:1021100000F0D8F835E7020206D54A0004D520467B
:10212000BDE8F041FFF77FBEC00195D5002993DAE5
:102130002046BDE8F041FFF729BE00000100001075
:10214000200100044928000810B5040003D0D4F889
:10215000880010B107E0012010BD002084F8840041
:10216000204600F027F82420C4F888002068016881
:1021700021F001010160A06A10B1204600F0AAFA26
:10218000204600F06FFC0128E6D02068416821F469
:10219000904141602068816821F02A0181602068B7
:1021A000016841F0010101602046BDE8104000F0E7
:1021B000F5BA000070B59CB00646142115A8FEF7CC
:1021C000F2F854216846FEF7EEF826493068884256
:1021D00046D104200025009003956846FFF7D8F803
:1021E00008B1FEF774FA2049886D40F480208865B4
:1021F000886D00F480201A90C86C40F00200C8641A
:10220000C86C15A900F002001A904FF440601590B8
:102210000220CDE916050720CDE918501348FEF736
:1022200095FE144C124820601C20C4E90105802052
:10223000C4E9035020206561C4E9065020462562A8
:10224000FEF754FB08B1FEF742FAC6F880400022C0
:1022500011462720A662FFF703F82720FEF7F2FFBA
:102260001CB070BD0048004000100240000400484F
:1022700008000240B404002030B4D0F88C30202B89
:1022800002D0022030BC7047A9B1A2B10023C366BE
:102290000A4C0368A3420BD05B681B0208D5046894
:1022A00054E8003F43F0806344E80035002DF6D148
:1022B00030BC00F023BD0120E4E7000000800040B6
:1022C000704770477047FEE7B3EE040ADFED0E0A71
:1022D00080ED030AC0ED040ADFED0C0A9FED0C1A35
:1022E000C0ED050ADFED0B1A80ED121AC0ED131ACE
:1022F00080EC020AB7EE000A80ED020A80ED141AA3
:10230000C0ED151A704700000AD7233CCDCCCC3D58
:1023100000401C4600401CC670B518482DED028BCD
:102320000446FEF703F92046FFF7CEFF134C9FED5E
:10233000148A1C3C04F1A00084ED058A84ED048A13
:102340000546FEF7F3F82846FFF7BEFF84ED268A20
:1023500084ED258A04F5927000F014F804F5D47029
:1023600000F010F804F50B7000F00CF8BDEC028BD7
:1023700004F52C70BDE8704000F004B85C0000204B
:1023800000000000B3EE040A80ED000A9FED080A89
:1023900080ED010AB7EE000A80ED020A9FED050A02
:1023A00080ED140A9FED040A80ED150A70470000C5
:1023B000CDCCCC3D00401C4600401CC60D4808B5A5
:1023C000816C41F004018164816C01F00401009191
:1023D000816C41F001018164806C002200F00100F9
:1023E000009011460B20FEF73BFFBDE808400B2094
:1023F000FEF728BF00100240114810B50F490160D8
:10240000002141608160C1600174417481741022B7
:10241000426101220223C0E90623C0E90832826238
:10242000C262C0E90C218163C163FEF7F1FB0028A1
:1024300003D0BDE81040FEF74AB910BD006400406B
:102440005803002010B511480F490A2401600021EB
:1024500041608160C1600174417481740323012271
:10246000C461C0E90532C0E908328262C262C0E9D3
:102470000C218163C163FEF7CBFB002803D0BDE8CC
:102480001040FEF724B910BD00680040BC030020D6
:102490000D4808B5C16C41F02001C164C16C01F068
:1024A00020010091C16C41F00201C164C16C01F0D6
:1024B00002010091C16C41F00101C164C06C00F0E7
:1024C0000100009008BD0000001002401B4810B53C
:1024D000194901601A4941604FF48051816000211F
:1024E0004FF48062C0E903120C22C0E90521C161EA
:1024F0000162416202218162C9030163FFF724FE88
:1025000008B1FEF7E4F800210C48FFF766FC08B1BB
:10251000FEF7DDF800210948FFF739FC08B1FEF7A6
:10252000D6F80648FFF712FC002803D0BDE810409B
:10253000FEF7CDB810BD0000004800402004002088
:10254000A0860100FEE790ED440A80ED520A90ED6E
:10255000420A80ED540A90ED470A80ED510A90ED51
:10256000460A80ED530A90ED650A80ED730A90EDFE
:10257000630A80ED750A90ED680A80ED720A90EDAD
:10258000670A80ED740A90ED860A80ED940A90ED5A
:10259000840A80ED960A90ED890A80ED930A90ED09
:1025A000880A80ED950A90EDA70A80EDB50A90EDB6
:1025B000A50A80EDB70A90EDAA0A80EDB40A90ED65
:1025C000A90A80EDB60A90ED230A80ED310A90ED5C
:1025D000210A80ED330A90ED260A80ED300A90ED55
:1025E000250A80ED320A90ED020A80ED100A90ED86
:1025F000000A80ED120A90ED050A80ED0F0A90EDB9
:10260000040A80ED110A7047FEE770477047FEF735
:10261000C7BD00B593B038216846FDF7C4FE14214C
:102620000EA8FDF7C0FE0020FEF74CFE0220C101FF
:102630000391402104910121CDE908010090152169
:10264000CDE90A1007900C900D906846FFF768F9E5
:1026500008B172B6FEE70F200E9003200F90002005
:102660004FF4A061CDE91001129004210EA8FFF7EC
:102670000FF8002801D072B6FEE713B000BD0000CD
:102680000248016841F470010160704788ED00E084
:1026900030B5416EB9B1026891689268C1F3426188
:1026A0000B4B520F9C5CE50003F10804A25CB5FBE8
:1026B000F2F2A0F86A205A5C615CD200B2FBF1F140
:1026C000A0F8681030BD0121A0F86A10F8E70000FA
:1026D000BE30000890F82810090706D501684A683E
:1026E000836B22F400421A434A6090F82810C9070D
:1026F00006D001684A68C36A22F400321A434A606D
:1027000090F82810890706D501684A68036B22F4FF
:1027100080321A434A6090F82810490706D50168AC
:102720004A68436B22F480221A434A6090F82810CA
:10273000C90606D501688A68C36B22F480521A4321
:102740008A6090F82810890606D501688A68036CAB
:1027500022F400521A438A6090F82810490611D5D5
:1027600001684A68436C22F480121A434A60416C43
:10277000B1F5801F06D101684A68836C22F4C0025B
:102780001A434A6090F82810090606D501684A687D
:10279000C06C22F4002202434A6070472DE9F843DE
:1027A00000260446C0F89060FEF7F4FC80462068DE
:1027B00000684FF0200500076FF07E4713D54346B1
:1027C000002229042046009700F0ECFA58B1216855
:1027D00051E8000F20F0800041E80002002AF6D105
:1027E000C4F8885021E020680068400722D543469D
:1027F00000224FF480012046009700F0D3FAC8B1C0
:10280000216851E8000F20F4907041E80002002A8E
:10281000F6D12068083050E8001F21F0010140E89F
:102820000012002AF5D1C4F88C5084F8846003208B
:10283000BDE8F883C4F88850C4F88C5044F86C6F35
:10284000666026760020F3E710B5806A0021A0F8C4
:102850005E10A0F85610FFF7E8FA10BD70B5846A54
:10286000D4F88800D4F88C50216889684FF00006AD
:10287000090606D5212804D1A4F85660204600F0A8
:10288000C7F820688068400606D5222D04D1A4F838
:102890005E60204600F092F8D4F8900040F01000FE
:1028A000C4F890002046FFF7C0FA70BD10B504468A
:1028B0001648844228D154F8800F0068016821F03E
:1028C00001010160206800684068114901F11200AF
:1028D000FDF7A5FE12210E48FDF765FD0C492C31D0
:1028E000A1F11A0000F086FB0949123101F11A002A
:1028F00000F002FB21681220096848602068006827
:10290000016841F00101016010BD000020040020B9
:102910001400002010B50146806A096809684FF06C
:10292000000289062DD4A0F85E20036853E8001F3A
:1029300021F4807143E80014002CF6D101680831BD
:1029400051E8003F23F0010341E80034002CF5D1A9
:102950000168083151E8003F23F0400341E80034AA
:10296000002CF5D12021C0F88C10C16E012908D1AE
:10297000016851E8003F23F0100341E80034002CC7
:10298000F6D10267C16E012902D0FFF799FC10BD94
:10299000B0F85C10FFF7F9F910BD10B5806A01219D
:1029A0000167C16E012902D0FFF78BFC10BDB0F8A2
:1029B0005C104908FFF7E9F910BD000010B5026886
:1029C00052E8001F21F4907142E80013002BF6D169
:1029D0000E4B0268083252E8001F194042E800140A
:1029E000002CF6D1C16E012908D1016851E8002FF1
:1029F00022F0100241E80023002BF6D12021C0F87C
:102A00008C100021C166416710BD0000FEFFFFEF82
:102A1000026852E8001F21F0C00142E80013002BB9
:102A2000F6D10168083151E8002F22F4000241E894
:102A30000023002BF5D12021C0F88810704700003A
:102A400006481021026811620068016841F0100117
:102A50000160122202490148FFF70EBC2004002049
:102A6000140000202DE9F0410446016880682269C5
:102A7000E3691043626900251A431043DFF84CC232
:102A80000A68934B1A4002430A6020684168E26872
:102A900021F44051114341602168A069614501D092
:102AA000226A10438A688B4B1A4002438A6020686E
:102AB000C16A626A21F00F011143C162864923682D
:102AC00086488B420DD1D0F8880010F0030006D064
:102AD000012867D0022854D0032851D164E0012096
:102AE0004FE07F498B420BD1D0F8880010F00C00EA
:102AF00047D0042845D0082852D00C2840D153E0B4
:102B000078498B420BD1D0F8880010F0300038D0D3
:102B1000102847D0202843D0302831D144E07249D2
:102B20008B420BD1D0F8880010F0C00029D040288B
:102B300038D0802834D0C02822D135E06B498B4270
:102B40000ED1D0F8880010F440701AD0B0F5807F14
:102B500028D0B0F5007F23D0B0F5407F10D123E01E
:102B600063450DD1D0F8880010F4406009D0B0F56D
:102B7000806F17D0B0F5006F12D0B0F5406F13D052
:102B800010205B4A5B4F00264FF40041634539D16A
:102B900060B102280DD004280DD0082831D10EE0F4
:102BA0000220EEE70420ECE70820EAE7FEF75EFEED
:102BB00003E0114603E0FEF77DFE01007BD0606A72
:102BC00037F810206768B1FBF2F007EB4703834248
:102BD00069D8B0EB073F66D8002308461946FDF7D1
:102BE0006BFB090241EA106102027808101871417A
:102BF0003A460023FDF760FB3F4AA0F54071914241
:102C000057D950E0E3694FF6EF788B422BD1092872
:102C100049D2DFE800F005080D48254848480E0075
:102C2000FEF724FE01E0FEF733FE010001D142E091
:102C30001146606A37F81000B1FBF0F0410060689F
:102C400001EB5001B1FBF0F1A1F1100040452AD891
:102C50004FF6F07201EA0200C1F34201084328E096
:102C6000FEF728FEE1E709281DD2DFE800F005089D
:102C70000D1C1E1C1C1C0E00FEF7F8FD01E0FEF7EB
:102C800007FE010001D116E01146606A37F8100016
:102C9000B1FBF0F1606801EB5001B1FBF0F0A0F185
:102CA0001001414504D9012505E0FEF703FEE8E7E0
:102CB00080B22168C8600120A4F86A0024F8680F77
:102CC0002846E6602661BDE8F081000000800040F3
:102CD000F369FFCFFFF4FF110038014000100240FC
:102CE0000044004000480040004C004000500040BC
:102CF0000024F400A6300008FFFC0F0070B58165C9
:102D0000A0F85C2000210446C0F890102220C4F8EE
:102D10008C00D4F88000F0B11F4BC362D4F880302F
:102D20001E481863D4F880301D485863D4F88000DA
:102D300013468163A56D21682A462431D4F88000AA
:102D4000FDF734FE38B11020C4F890002020C4F8FC
:102D50008C00012070BD206940B1216851E8000F4E
:102D600040F4807041E80002002AF6D12068083063
:102D700050E8001F41F0010140E80012002AF5D19F
:102D80002068083050E8001F41F0400140E8001280
:102D9000002AF5D1002070BD152900089B290008E4
:102DA0005D2800082DE9F047994617460D46044670
:102DB0004FF00008089E33E0701C31D0FEF7EAF9AE
:102DC000A0EB0900B04218D8BEB1206801684907DD
:102DD00026D5802D24D0402D22D0C169C9430907B2
:102DE0000DD4082505622046FFF7E8FDC4F8905091
:102DF00084F884800120BDE8F0870320FBE7C069E8
:102E0000C04300050CD421684FF4006008622046DE
:102E1000FFF7D4FD2020C4F8900084F88480ECE70C
:102E20002068C06935EA000004D00020B842C3D051
:102E30000020E0E70120F9E710B50C48FEF7F6FFA7
:102E40000A4C2068C169C943C9060ED41021016229
:102E50002068016821F0100101602046FFF726FD7F
:102E60002068016841F01001016010BD20040020BD
:102E7000FEE70907090E002804DB00F1E02080F8D6
:102E80000014704700F00F0000F1E02080F8141DDE
:102E9000704710B58CB0002200920192B1F8203139
:102EA0001C0A8DF800408DF80130B1F8A4311B0ADE
:102EB0008DF8023091F8A4318DF80330B1F8283242
:102EC0001B0A8DF8043091F828328DF80530B1F8DE
:102ED000AC321B0A8DF8063091F8AC128DF8071051
:102EE000082105918901CDE9021204926A4602A9DE
:102EF000FDF7B4FD0CB010BD0A7A9FED210AF7EE84
:102F0000000A012A01D1B0EE600AB1F90A2000EEF0
:102F1000902AB1F90420B1F90610F8EEE00A20EE8B
:102F2000800A00EE902AB8EEE01ADFED160AC1EE34
:102F3000201A9FED151A21EE812A01EE901AF8EE63
:102F4000E11AC1EEA02AF0EE000A62EE811A31EE1B
:102F5000C21A71EE821AF0EE412AB0EE612A40EEFA
:102F6000202A00EE602A00EE601A40EE201AC0ED22
:102F7000462A80ED672A80ED881AC0EDA91A7047AD
:102F800000000000000025440000C84310B50446BE
:102F900000F59270FDF76CFA04F5D470FDF768FA4D
:102FA00004F50B70FDF764FA04F52C70FDF760FA78
:102FB00094ED500ABDEEC00A10EE100AA4F82001EC
:102FC00094ED710ABDEEC00A10EE100AA4F8A40137
:102FD00094ED920ABDEEC00A10EE100AA4F8280281
:102FE00094EDB30ABDEEC00A10EE100AA4F8AC02CC
:102FF00010BD0000B0F90020B1EE041A00EE102A56
:10300000F8EEC00A9FED0E0AC0EE801AD1ED050A57
:1030100041EE810AC1ED050AB0F9020001EE900A05
:10302000B8EEE12AC2EE001A91ED260A01EE810AFD
:1030300081ED260AC1ED0F0A81ED300A70470000CC
:1030400000FEFF46FEF7B4F8FFF7E3FAFFF720FAB9
:10305000FFF7B4F9FFF73AFAFFF7CEF9FFF7F2F905
:10306000FFF7EEFCFFF758F90648FFF76CFA054842
:10307000FFF78CFF03490448FFF70BFF0120FDF722
:10308000DBFCF1E740000020580300204FF04070C7
:10309000E1EE100A70470001020304050607080C60
:1030A000101418203040010002000400060008003F
:1030B0000A000C0010002000400080000001010107
:1030C00001030701000008040204080101010000D7
:1030D00000000000000001020304060708090000C8
:1030E0000000010203040000083100080000002075
:1030F00014000000140200081C3100081400002015
:10310000640B000030020008000000001000000006
:0C31100001000000000000000024F4009A
:04000005080001D915
:00000001FF
